{"abi":[{"anonymous":false,"inputs":[{"indexed":true,"internalType":"address","name":"sender","type":"address"},{"indexed":false,"internalType":"address","name":"account","type":"address"}],"name":"AccountCreated","type":"event"},{"inputs":[],"name":"createAccount","outputs":[],"stateMutability":"nonpayable","type":"function"}],"devdoc":{"kind":"dev","methods":{},"version":1},"evm":{"assembly":"    /* \"BankAccount.sol\":61:345  contract BankAccountFactory {... */\n  mstore(0x40, 0x80)\n  callvalue\n  dup1\n  iszero\n  tag_1\n  jumpi\n  0x00\n  dup1\n  revert\ntag_1:\n  pop\n  dataSize(sub_0)\n  dup1\n  dataOffset(sub_0)\n  0x00\n  codecopy\n  0x00\n  return\nstop\n\nsub_0: assembly {\n        /* \"BankAccount.sol\":61:345  contract BankAccountFactory {... */\n      mstore(0x40, 0x80)\n      callvalue\n      dup1\n      iszero\n      tag_1\n      jumpi\n      0x00\n      dup1\n      revert\n    tag_1:\n      pop\n      jumpi(tag_2, lt(calldatasize, 0x04))\n      shr(0xe0, calldataload(0x00))\n      dup1\n      0x9dca362f\n      eq\n      tag_3\n      jumpi\n    tag_2:\n      0x00\n      dup1\n      revert\n        /* \"BankAccount.sol\":168:336  function createAccount() public {    ... */\n    tag_3:\n      tag_4\n      tag_5\n      jump\t// in\n    tag_4:\n      stop\n    tag_5:\n        /* \"BankAccount.sol\":215:234  address new_account */\n      0x00\n        /* \"BankAccount.sol\":261:271  msg.sender */\n      caller\n        /* \"BankAccount.sol\":245:272  new BankAccount(msg.sender) */\n      mload(0x40)\n      tag_7\n      swap1\n      tag_8\n      jump\t// in\n    tag_7:\n      tag_9\n      swap2\n      swap1\n      tag_10\n      jump\t// in\n    tag_9:\n      mload(0x40)\n      dup1\n      swap2\n      sub\n      swap1\n      0x00\n      create\n      dup1\n      iszero\n      dup1\n      iszero\n      tag_11\n      jumpi\n      returndatasize\n      0x00\n      dup1\n      returndatacopy\n      revert(0x00, returndatasize)\n    tag_11:\n      pop\n        /* \"BankAccount.sol\":215:273  address new_account = address(new BankAccount(msg.sender)) */\n      swap1\n      pop\n        /* \"BankAccount.sol\":304:314  msg.sender */\n      caller\n        /* \"BankAccount.sol\":289:328  AccountCreated(msg.sender, new_account) */\n      0xffffffffffffffffffffffffffffffffffffffff\n      and\n      0xac631f3001b55ea1509cf3d7e74898f85392a61a76e8149181ae1259622dabc8\n        /* \"BankAccount.sol\":316:327  new_account */\n      dup3\n        /* \"BankAccount.sol\":289:328  AccountCreated(msg.sender, new_account) */\n      mload(0x40)\n      tag_12\n      swap2\n      swap1\n      tag_10\n      jump\t// in\n    tag_12:\n      mload(0x40)\n      dup1\n      swap2\n      sub\n      swap1\n      log2\n        /* \"BankAccount.sol\":200:336  {    ... */\n      pop\n        /* \"BankAccount.sol\":168:336  function createAccount() public {    ... */\n      jump\t// out\n    tag_8:\n      dataSize(sub_0)\n      dup1\n      dataOffset(sub_0)\n      dup4\n      codecopy\n      add\n      swap1\n      jump\t// out\n        /* \"#utility.yul\":7:133   */\n    tag_13:\n        /* \"#utility.yul\":44:51   */\n      0x00\n        /* \"#utility.yul\":84:126   */\n      0xffffffffffffffffffffffffffffffffffffffff\n        /* \"#utility.yul\":77:82   */\n      dup3\n        /* \"#utility.yul\":73:127   */\n      and\n        /* \"#utility.yul\":62:127   */\n      swap1\n      pop\n        /* \"#utility.yul\":7:133   */\n      swap2\n      swap1\n      pop\n      jump\t// out\n        /* \"#utility.yul\":139:235   */\n    tag_14:\n        /* \"#utility.yul\":176:183   */\n      0x00\n        /* \"#utility.yul\":205:229   */\n      tag_19\n        /* \"#utility.yul\":223:228   */\n      dup3\n        /* \"#utility.yul\":205:229   */\n      tag_13\n      jump\t// in\n    tag_19:\n        /* \"#utility.yul\":194:229   */\n      swap1\n      pop\n        /* \"#utility.yul\":139:235   */\n      swap2\n      swap1\n      pop\n      jump\t// out\n        /* \"#utility.yul\":241:359   */\n    tag_15:\n        /* \"#utility.yul\":328:352   */\n      tag_21\n        /* \"#utility.yul\":346:351   */\n      dup2\n        /* \"#utility.yul\":328:352   */\n      tag_14\n      jump\t// in\n    tag_21:\n        /* \"#utility.yul\":323:326   */\n      dup3\n        /* \"#utility.yul\":316:353   */\n      mstore\n        /* \"#utility.yul\":241:359   */\n      pop\n      pop\n      jump\t// out\n        /* \"#utility.yul\":365:587   */\n    tag_10:\n        /* \"#utility.yul\":458:462   */\n      0x00\n        /* \"#utility.yul\":496:498   */\n      0x20\n        /* \"#utility.yul\":485:494   */\n      dup3\n        /* \"#utility.yul\":481:499   */\n      add\n        /* \"#utility.yul\":473:499   */\n      swap1\n      pop\n        /* \"#utility.yul\":509:580   */\n      tag_23\n        /* \"#utility.yul\":577:578   */\n      0x00\n        /* \"#utility.yul\":566:575   */\n      dup4\n        /* \"#utility.yul\":562:579   */\n      add\n        /* \"#utility.yul\":553:559   */\n      dup5\n        /* \"#utility.yul\":509:580   */\n      tag_15\n      jump\t// in\n    tag_23:\n        /* \"#utility.yul\":365:587   */\n      swap3\n      swap2\n      pop\n      pop\n      jump\t// out\n    stop\n\n    sub_0: assembly {\n            /* \"BankAccount.sol\":349:872  contract BankAccount {... */\n          mstore(0x40, 0x80)\n            /* \"BankAccount.sol\":498:573  constructor(address the_owner) payable {... */\n          mload(0x40)\n          sub(codesize, bytecodeSize)\n          dup1\n          bytecodeSize\n          dup4\n          codecopy\n          dup2\n          dup2\n          add\n          0x40\n          mstore\n          dup2\n          add\n          swap1\n          tag_1\n          swap2\n          swap1\n          tag_2\n          jump\t// in\n        tag_1:\n            /* \"BankAccount.sol\":556:565  the_owner */\n          dup1\n            /* \"BankAccount.sol\":548:553  owner */\n          0x00\n          dup1\n            /* \"BankAccount.sol\":548:565  owner = the_owner */\n          0x0100\n          exp\n          dup2\n          sload\n          dup2\n          0xffffffffffffffffffffffffffffffffffffffff\n          mul\n          not\n          and\n          swap1\n          dup4\n          0xffffffffffffffffffffffffffffffffffffffff\n          and\n          mul\n          or\n          swap1\n          sstore\n          pop\n            /* \"BankAccount.sol\":498:573  constructor(address the_owner) payable {... */\n          pop\n            /* \"BankAccount.sol\":349:872  contract BankAccount {... */\n          jump(tag_5)\n            /* \"#utility.yul\":88:205   */\n        tag_7:\n            /* \"#utility.yul\":197:198   */\n          0x00\n            /* \"#utility.yul\":194:195   */\n          dup1\n            /* \"#utility.yul\":187:199   */\n          revert\n            /* \"#utility.yul\":334:460   */\n        tag_9:\n            /* \"#utility.yul\":371:378   */\n          0x00\n            /* \"#utility.yul\":411:453   */\n          0xffffffffffffffffffffffffffffffffffffffff\n            /* \"#utility.yul\":404:409   */\n          dup3\n            /* \"#utility.yul\":400:454   */\n          and\n            /* \"#utility.yul\":389:454   */\n          swap1\n          pop\n            /* \"#utility.yul\":334:460   */\n          swap2\n          swap1\n          pop\n          jump\t// out\n            /* \"#utility.yul\":466:562   */\n        tag_10:\n            /* \"#utility.yul\":503:510   */\n          0x00\n            /* \"#utility.yul\":532:556   */\n          tag_19\n            /* \"#utility.yul\":550:555   */\n          dup3\n            /* \"#utility.yul\":532:556   */\n          tag_9\n          jump\t// in\n        tag_19:\n            /* \"#utility.yul\":521:556   */\n          swap1\n          pop\n            /* \"#utility.yul\":466:562   */\n          swap2\n          swap1\n          pop\n          jump\t// out\n            /* \"#utility.yul\":568:690   */\n        tag_11:\n            /* \"#utility.yul\":641:665   */\n          tag_21\n            /* \"#utility.yul\":659:664   */\n          dup2\n            /* \"#utility.yul\":641:665   */\n          tag_10\n          jump\t// in\n        tag_21:\n            /* \"#utility.yul\":634:639   */\n          dup2\n            /* \"#utility.yul\":631:666   */\n          eq\n            /* \"#utility.yul\":621:684   */\n          tag_22\n          jumpi\n            /* \"#utility.yul\":680:681   */\n          0x00\n            /* \"#utility.yul\":677:678   */\n          dup1\n            /* \"#utility.yul\":670:682   */\n          revert\n            /* \"#utility.yul\":621:684   */\n        tag_22:\n            /* \"#utility.yul\":568:690   */\n          pop\n          jump\t// out\n            /* \"#utility.yul\":696:839   */\n        tag_12:\n            /* \"#utility.yul\":753:758   */\n          0x00\n            /* \"#utility.yul\":784:790   */\n          dup2\n            /* \"#utility.yul\":778:791   */\n          mload\n            /* \"#utility.yul\":769:791   */\n          swap1\n          pop\n            /* \"#utility.yul\":800:833   */\n          tag_24\n            /* \"#utility.yul\":827:832   */\n          dup2\n            /* \"#utility.yul\":800:833   */\n          tag_11\n          jump\t// in\n        tag_24:\n            /* \"#utility.yul\":696:839   */\n          swap3\n          swap2\n          pop\n          pop\n          jump\t// out\n            /* \"#utility.yul\":845:1196   */\n        tag_2:\n            /* \"#utility.yul\":915:921   */\n          0x00\n            /* \"#utility.yul\":964:966   */\n          0x20\n            /* \"#utility.yul\":952:961   */\n          dup3\n            /* \"#utility.yul\":943:950   */\n          dup5\n            /* \"#utility.yul\":939:962   */\n          sub\n            /* \"#utility.yul\":935:967   */\n          slt\n            /* \"#utility.yul\":932:1051   */\n          iszero\n          tag_26\n          jumpi\n            /* \"#utility.yul\":970:1049   */\n          tag_27\n          tag_7\n          jump\t// in\n        tag_27:\n            /* \"#utility.yul\":932:1051   */\n        tag_26:\n            /* \"#utility.yul\":1090:1091   */\n          0x00\n            /* \"#utility.yul\":1115:1179   */\n          tag_28\n            /* \"#utility.yul\":1171:1178   */\n          dup5\n            /* \"#utility.yul\":1162:1168   */\n          dup3\n            /* \"#utility.yul\":1151:1160   */\n          dup6\n            /* \"#utility.yul\":1147:1169   */\n          add\n            /* \"#utility.yul\":1115:1179   */\n          tag_12\n          jump\t// in\n        tag_28:\n            /* \"#utility.yul\":1105:1179   */\n          swap2\n          pop\n            /* \"#utility.yul\":1061:1189   */\n          pop\n            /* \"#utility.yul\":845:1196   */\n          swap3\n          swap2\n          pop\n          pop\n          jump\t// out\n            /* \"BankAccount.sol\":349:872  contract BankAccount {... */\n        tag_5:\n          dataSize(sub_0)\n          dup1\n          dataOffset(sub_0)\n          0x00\n          codecopy\n          0x00\n          return\n        stop\n\n        sub_0: assembly {\n                /* \"BankAccount.sol\":349:872  contract BankAccount {... */\n              mstore(0x40, 0x80)\n              jumpi(tag_1, lt(calldatasize, 0x04))\n              shr(0xe0, calldataload(0x00))\n              dup1\n              0x2e1a7d4d\n              eq\n              tag_2\n              jumpi\n              dup1\n              0x8da5cb5b\n              eq\n              tag_3\n              jumpi\n              dup1\n              0xd0e30db0\n              eq\n              tag_4\n              jumpi\n            tag_1:\n              0x00\n              dup1\n              revert\n                /* \"BankAccount.sol\":700:869  function withdraw(uint amount) public mustBeOwner {... */\n            tag_2:\n              callvalue\n              dup1\n              iszero\n              tag_5\n              jumpi\n              0x00\n              dup1\n              revert\n            tag_5:\n              pop\n              tag_6\n              0x04\n              dup1\n              calldatasize\n              sub\n              dup2\n              add\n              swap1\n              tag_7\n              swap2\n              swap1\n              tag_8\n              jump\t// in\n            tag_7:\n              tag_9\n              jump\t// in\n            tag_6:\n              stop\n                /* \"BankAccount.sol\":379:399  address public owner */\n            tag_3:\n              callvalue\n              dup1\n              iszero\n              tag_10\n              jumpi\n              0x00\n              dup1\n              revert\n            tag_10:\n              pop\n              tag_11\n              tag_12\n              jump\t// in\n            tag_11:\n              mload(0x40)\n              tag_13\n              swap2\n              swap1\n              tag_14\n              jump\t// in\n            tag_13:\n              mload(0x40)\n              dup1\n              swap2\n              sub\n              swap1\n              return\n                /* \"BankAccount.sol\":581:692  function deposit() public payable {... */\n            tag_4:\n              tag_15\n              tag_16\n              jump\t// in\n            tag_15:\n              stop\n                /* \"BankAccount.sol\":700:869  function withdraw(uint amount) public mustBeOwner {... */\n            tag_9:\n                /* \"BankAccount.sol\":464:469  owner */\n              0x00\n              dup1\n              sload\n              swap1\n              0x0100\n              exp\n              swap1\n              div\n              0xffffffffffffffffffffffffffffffffffffffff\n              and\n                /* \"BankAccount.sol\":450:469  msg.sender == owner */\n              0xffffffffffffffffffffffffffffffffffffffff\n              and\n                /* \"BankAccount.sol\":450:460  msg.sender */\n              caller\n                /* \"BankAccount.sol\":450:469  msg.sender == owner */\n              0xffffffffffffffffffffffffffffffffffffffff\n              and\n              eq\n                /* \"BankAccount.sol\":442:470  require(msg.sender == owner) */\n              tag_18\n              jumpi\n              0x00\n              dup1\n              revert\n            tag_18:\n                /* \"BankAccount.sol\":777:798  address(this).balance */\n              selfbalance\n                /* \"BankAccount.sol\":767:773  amount */\n              dup2\n                /* \"BankAccount.sol\":767:798  amount <= address(this).balance */\n              gt\n              iszero\n                /* \"BankAccount.sol\":759:821  require(amount <= address(this).balance, \"Insufficient funds\") */\n              tag_20\n              jumpi\n              mload(0x40)\n              0x08c379a000000000000000000000000000000000000000000000000000000000\n              dup2\n              mstore\n              0x04\n              add\n              tag_21\n              swap1\n              tag_22\n              jump\t// in\n            tag_21:\n              mload(0x40)\n              dup1\n              swap2\n              sub\n              swap1\n              revert\n            tag_20:\n                /* \"BankAccount.sol\":838:843  owner */\n              0x00\n              dup1\n              sload\n              swap1\n              0x0100\n              exp\n              swap1\n              div\n              0xffffffffffffffffffffffffffffffffffffffff\n              and\n                /* \"BankAccount.sol\":830:853  payable(owner).transfer */\n              0xffffffffffffffffffffffffffffffffffffffff\n              and\n                /* \"BankAccount.sol\":830:861  payable(owner).transfer(amount) */\n              0x08fc\n                /* \"BankAccount.sol\":854:860  amount */\n              dup3\n                /* \"BankAccount.sol\":830:861  payable(owner).transfer(amount) */\n              swap1\n              dup2\n              iszero\n              mul\n              swap1\n              mload(0x40)\n              0x00\n              mload(0x40)\n              dup1\n              dup4\n              sub\n              dup2\n              dup6\n              dup9\n              dup9\n              call\n              swap4\n              pop\n              pop\n              pop\n              pop\n              iszero\n              dup1\n              iszero\n              tag_24\n              jumpi\n              returndatasize\n              0x00\n              dup1\n              returndatacopy\n              revert(0x00, returndatasize)\n            tag_24:\n              pop\n                /* \"BankAccount.sol\":700:869  function withdraw(uint amount) public mustBeOwner {... */\n              pop\n              jump\t// out\n                /* \"BankAccount.sol\":379:399  address public owner */\n            tag_12:\n              0x00\n              dup1\n              sload\n              swap1\n              0x0100\n              exp\n              swap1\n              div\n              0xffffffffffffffffffffffffffffffffffffffff\n              and\n              dup2\n              jump\t// out\n                /* \"BankAccount.sol\":581:692  function deposit() public payable {... */\n            tag_16:\n              jump\t// out\n                /* \"#utility.yul\":88:205   */\n            tag_27:\n                /* \"#utility.yul\":197:198   */\n              0x00\n                /* \"#utility.yul\":194:195   */\n              dup1\n                /* \"#utility.yul\":187:199   */\n              revert\n                /* \"#utility.yul\":334:411   */\n            tag_29:\n                /* \"#utility.yul\":371:378   */\n              0x00\n                /* \"#utility.yul\":400:405   */\n              dup2\n                /* \"#utility.yul\":389:405   */\n              swap1\n              pop\n                /* \"#utility.yul\":334:411   */\n              swap2\n              swap1\n              pop\n              jump\t// out\n                /* \"#utility.yul\":417:539   */\n            tag_30:\n                /* \"#utility.yul\":490:514   */\n              tag_44\n                /* \"#utility.yul\":508:513   */\n              dup2\n                /* \"#utility.yul\":490:514   */\n              tag_29\n              jump\t// in\n            tag_44:\n                /* \"#utility.yul\":483:488   */\n              dup2\n                /* \"#utility.yul\":480:515   */\n              eq\n                /* \"#utility.yul\":470:533   */\n              tag_45\n              jumpi\n                /* \"#utility.yul\":529:530   */\n              0x00\n                /* \"#utility.yul\":526:527   */\n              dup1\n                /* \"#utility.yul\":519:531   */\n              revert\n                /* \"#utility.yul\":470:533   */\n            tag_45:\n                /* \"#utility.yul\":417:539   */\n              pop\n              jump\t// out\n                /* \"#utility.yul\":545:684   */\n            tag_31:\n                /* \"#utility.yul\":591:596   */\n              0x00\n                /* \"#utility.yul\":629:635   */\n              dup2\n                /* \"#utility.yul\":616:636   */\n              calldataload\n                /* \"#utility.yul\":607:636   */\n              swap1\n              pop\n                /* \"#utility.yul\":645:678   */\n              tag_47\n                /* \"#utility.yul\":672:677   */\n              dup2\n                /* \"#utility.yul\":645:678   */\n              tag_30\n              jump\t// in\n            tag_47:\n                /* \"#utility.yul\":545:684   */\n              swap3\n              swap2\n              pop\n              pop\n              jump\t// out\n                /* \"#utility.yul\":690:1019   */\n            tag_8:\n                /* \"#utility.yul\":749:755   */\n              0x00\n                /* \"#utility.yul\":798:800   */\n              0x20\n                /* \"#utility.yul\":786:795   */\n              dup3\n                /* \"#utility.yul\":777:784   */\n              dup5\n                /* \"#utility.yul\":773:796   */\n              sub\n                /* \"#utility.yul\":769:801   */\n              slt\n                /* \"#utility.yul\":766:885   */\n              iszero\n              tag_49\n              jumpi\n                /* \"#utility.yul\":804:883   */\n              tag_50\n              tag_27\n              jump\t// in\n            tag_50:\n                /* \"#utility.yul\":766:885   */\n            tag_49:\n                /* \"#utility.yul\":924:925   */\n              0x00\n                /* \"#utility.yul\":949:1002   */\n              tag_51\n                /* \"#utility.yul\":994:1001   */\n              dup5\n                /* \"#utility.yul\":985:991   */\n              dup3\n                /* \"#utility.yul\":974:983   */\n              dup6\n                /* \"#utility.yul\":970:992   */\n              add\n                /* \"#utility.yul\":949:1002   */\n              tag_31\n              jump\t// in\n            tag_51:\n                /* \"#utility.yul\":939:1002   */\n              swap2\n              pop\n                /* \"#utility.yul\":895:1012   */\n              pop\n                /* \"#utility.yul\":690:1019   */\n              swap3\n              swap2\n              pop\n              pop\n              jump\t// out\n                /* \"#utility.yul\":1025:1151   */\n            tag_32:\n                /* \"#utility.yul\":1062:1069   */\n              0x00\n                /* \"#utility.yul\":1102:1144   */\n              0xffffffffffffffffffffffffffffffffffffffff\n                /* \"#utility.yul\":1095:1100   */\n              dup3\n                /* \"#utility.yul\":1091:1145   */\n              and\n                /* \"#utility.yul\":1080:1145   */\n              swap1\n              pop\n                /* \"#utility.yul\":1025:1151   */\n              swap2\n              swap1\n              pop\n              jump\t// out\n                /* \"#utility.yul\":1157:1253   */\n            tag_33:\n                /* \"#utility.yul\":1194:1201   */\n              0x00\n                /* \"#utility.yul\":1223:1247   */\n              tag_54\n                /* \"#utility.yul\":1241:1246   */\n              dup3\n                /* \"#utility.yul\":1223:1247   */\n              tag_32\n              jump\t// in\n            tag_54:\n                /* \"#utility.yul\":1212:1247   */\n              swap1\n              pop\n                /* \"#utility.yul\":1157:1253   */\n              swap2\n              swap1\n              pop\n              jump\t// out\n                /* \"#utility.yul\":1259:1377   */\n            tag_34:\n                /* \"#utility.yul\":1346:1370   */\n              tag_56\n                /* \"#utility.yul\":1364:1369   */\n              dup2\n                /* \"#utility.yul\":1346:1370   */\n              tag_33\n              jump\t// in\n            tag_56:\n                /* \"#utility.yul\":1341:1344   */\n              dup3\n                /* \"#utility.yul\":1334:1371   */\n              mstore\n                /* \"#utility.yul\":1259:1377   */\n              pop\n              pop\n              jump\t// out\n                /* \"#utility.yul\":1383:1605   */\n            tag_14:\n                /* \"#utility.yul\":1476:1480   */\n              0x00\n                /* \"#utility.yul\":1514:1516   */\n              0x20\n                /* \"#utility.yul\":1503:1512   */\n              dup3\n                /* \"#utility.yul\":1499:1517   */\n              add\n                /* \"#utility.yul\":1491:1517   */\n              swap1\n              pop\n                /* \"#utility.yul\":1527:1598   */\n              tag_58\n                /* \"#utility.yul\":1595:1596   */\n              0x00\n                /* \"#utility.yul\":1584:1593   */\n              dup4\n                /* \"#utility.yul\":1580:1597   */\n              add\n                /* \"#utility.yul\":1571:1577   */\n              dup5\n                /* \"#utility.yul\":1527:1598   */\n              tag_34\n              jump\t// in\n            tag_58:\n                /* \"#utility.yul\":1383:1605   */\n              swap3\n              swap2\n              pop\n              pop\n              jump\t// out\n                /* \"#utility.yul\":1611:1780   */\n            tag_35:\n                /* \"#utility.yul\":1695:1706   */\n              0x00\n                /* \"#utility.yul\":1729:1735   */\n              dup3\n                /* \"#utility.yul\":1724:1727   */\n              dup3\n                /* \"#utility.yul\":1717:1736   */\n              mstore\n                /* \"#utility.yul\":1769:1773   */\n              0x20\n                /* \"#utility.yul\":1764:1767   */\n              dup3\n                /* \"#utility.yul\":1760:1774   */\n              add\n                /* \"#utility.yul\":1745:1774   */\n              swap1\n              pop\n                /* \"#utility.yul\":1611:1780   */\n              swap3\n              swap2\n              pop\n              pop\n              jump\t// out\n                /* \"#utility.yul\":1786:1954   */\n            tag_36:\n                /* \"#utility.yul\":1926:1946   */\n              0x496e73756666696369656e742066756e64730000000000000000000000000000\n                /* \"#utility.yul\":1922:1923   */\n              0x00\n                /* \"#utility.yul\":1914:1920   */\n              dup3\n                /* \"#utility.yul\":1910:1924   */\n              add\n                /* \"#utility.yul\":1903:1947   */\n              mstore\n                /* \"#utility.yul\":1786:1954   */\n              pop\n              jump\t// out\n                /* \"#utility.yul\":1960:2326   */\n            tag_37:\n                /* \"#utility.yul\":2102:2105   */\n              0x00\n                /* \"#utility.yul\":2123:2190   */\n              tag_62\n                /* \"#utility.yul\":2187:2189   */\n              0x12\n                /* \"#utility.yul\":2182:2185   */\n              dup4\n                /* \"#utility.yul\":2123:2190   */\n              tag_35\n              jump\t// in\n            tag_62:\n                /* \"#utility.yul\":2116:2190   */\n              swap2\n              pop\n                /* \"#utility.yul\":2199:2292   */\n              tag_63\n                /* \"#utility.yul\":2288:2291   */\n              dup3\n                /* \"#utility.yul\":2199:2292   */\n              tag_36\n              jump\t// in\n            tag_63:\n                /* \"#utility.yul\":2317:2319   */\n              0x20\n                /* \"#utility.yul\":2312:2315   */\n              dup3\n                /* \"#utility.yul\":2308:2320   */\n              add\n                /* \"#utility.yul\":2301:2320   */\n              swap1\n              pop\n                /* \"#utility.yul\":1960:2326   */\n              swap2\n              swap1\n              pop\n              jump\t// out\n                /* \"#utility.yul\":2332:2751   */\n            tag_22:\n                /* \"#utility.yul\":2498:2502   */\n              0x00\n                /* \"#utility.yul\":2536:2538   */\n              0x20\n                /* \"#utility.yul\":2525:2534   */\n              dup3\n                /* \"#utility.yul\":2521:2539   */\n              add\n                /* \"#utility.yul\":2513:2539   */\n              swap1\n              pop\n                /* \"#utility.yul\":2585:2594   */\n              dup2\n                /* \"#utility.yul\":2579:2583   */\n              dup2\n                /* \"#utility.yul\":2575:2595   */\n              sub\n                /* \"#utility.yul\":2571:2572   */\n              0x00\n                /* \"#utility.yul\":2560:2569   */\n              dup4\n                /* \"#utility.yul\":2556:2573   */\n              add\n                /* \"#utility.yul\":2549:2596   */\n              mstore\n                /* \"#utility.yul\":2613:2744   */\n              tag_65\n                /* \"#utility.yul\":2739:2743   */\n              dup2\n                /* \"#utility.yul\":2613:2744   */\n              tag_37\n              jump\t// in\n            tag_65:\n                /* \"#utility.yul\":2605:2744   */\n              swap1\n              pop\n                /* \"#utility.yul\":2332:2751   */\n              swap2\n              swap1\n              pop\n              jump\t// out\n\n            auxdata: 0xa26469706673582212208733b148fb86a2af9aa715f82856451c1aebb7f906976b84e59ef692bf36258764736f6c634300080b0033\n        }\n    }\n\n    auxdata: 0xa2646970667358221220ccfa8ce45dd4a15df5f0248296eaf264f8f09d6b6335a981b6d3c39a2e40d49864736f6c634300080b0033\n}\n","bytecode":{"linkReferences":{},"object":"608060405234801561001057600080fd5b506105a5806100206000396000f3fe608060405234801561001057600080fd5b506004361061002b5760003560e01c80639dca362f14610030575b600080fd5b61003861003a565b005b600033604051610049906100c3565b6100539190610111565b604051809103906000f08015801561006f573d6000803e3d6000fd5b5090503373ffffffffffffffffffffffffffffffffffffffff167fac631f3001b55ea1509cf3d7e74898f85392a61a76e8149181ae1259622dabc8826040516100b89190610111565b60405180910390a250565b6104438061012d83390190565b600073ffffffffffffffffffffffffffffffffffffffff82169050919050565b60006100fb826100d0565b9050919050565b61010b816100f0565b82525050565b60006020820190506101266000830184610102565b9291505056fe6080604052604051610443380380610443833981810160405281019061002591906100ce565b806000806101000a81548173ffffffffffffffffffffffffffffffffffffffff021916908373ffffffffffffffffffffffffffffffffffffffff160217905550506100fb565b600080fd5b600073ffffffffffffffffffffffffffffffffffffffff82169050919050565b600061009b82610070565b9050919050565b6100ab81610090565b81146100b657600080fd5b50565b6000815190506100c8816100a2565b92915050565b6000602082840312156100e4576100e361006b565b5b60006100f2848285016100b9565b91505092915050565b6103398061010a6000396000f3fe6080604052600436106100345760003560e01c80632e1a7d4d146100395780638da5cb5b14610062578063d0e30db01461008d575b600080fd5b34801561004557600080fd5b50610060600480360381019061005b91906101fd565b610097565b005b34801561006e57600080fd5b5061007761019c565b604051610084919061026b565b60405180910390f35b6100956101c0565b005b60008054906101000a900473ffffffffffffffffffffffffffffffffffffffff1673ffffffffffffffffffffffffffffffffffffffff163373ffffffffffffffffffffffffffffffffffffffff16146100ef57600080fd5b47811115610132576040517f08c379a0000000000000000000000000000000000000000000000000000000008152600401610129906102e3565b60405180910390fd5b60008054906101000a900473ffffffffffffffffffffffffffffffffffffffff1673ffffffffffffffffffffffffffffffffffffffff166108fc829081150290604051600060405180830381858888f19350505050158015610198573d6000803e3d6000fd5b5050565b60008054906101000a900473ffffffffffffffffffffffffffffffffffffffff1681565b565b600080fd5b6000819050919050565b6101da816101c7565b81146101e557600080fd5b50565b6000813590506101f7816101d1565b92915050565b600060208284031215610213576102126101c2565b5b6000610221848285016101e8565b91505092915050565b600073ffffffffffffffffffffffffffffffffffffffff82169050919050565b60006102558261022a565b9050919050565b6102658161024a565b82525050565b6000602082019050610280600083018461025c565b92915050565b600082825260208201905092915050565b7f496e73756666696369656e742066756e64730000000000000000000000000000600082015250565b60006102cd601283610286565b91506102d882610297565b602082019050919050565b600060208201905081810360008301526102fc816102c0565b905091905056fea26469706673582212208733b148fb86a2af9aa715f82856451c1aebb7f906976b84e59ef692bf36258764736f6c634300080b0033a2646970667358221220ccfa8ce45dd4a15df5f0248296eaf264f8f09d6b6335a981b6d3c39a2e40d49864736f6c634300080b0033","opcodes":"PUSH1 0x80 PUSH1 0x40 MSTORE CALLVALUE DUP1 ISZERO PUSH2 0x10 JUMPI PUSH1 0x0 DUP1 REVERT JUMPDEST POP PUSH2 0x5A5 DUP1 PUSH2 0x20 PUSH1 0x0 CODECOPY PUSH1 0x0 RETURN INVALID PUSH1 0x80 PUSH1 0x40 MSTORE CALLVALUE DUP1 ISZERO PUSH2 0x10 JUMPI PUSH1 0x0 DUP1 REVERT JUMPDEST POP PUSH1 0x4 CALLDATASIZE LT PUSH2 0x2B JUMPI PUSH1 0x0 CALLDATALOAD PUSH1 0xE0 SHR DUP1 PUSH4 0x9DCA362F EQ PUSH2 0x30 JUMPI JUMPDEST PUSH1 0x0 DUP1 REVERT JUMPDEST PUSH2 0x38 PUSH2 0x3A JUMP JUMPDEST STOP JUMPDEST PUSH1 0x0 CALLER PUSH1 0x40 MLOAD PUSH2 0x49 SWAP1 PUSH2 0xC3 JUMP JUMPDEST PUSH2 0x53 SWAP2 SWAP1 PUSH2 0x111 JUMP JUMPDEST PUSH1 0x40 MLOAD DUP1 SWAP2 SUB SWAP1 PUSH1 0x0 CREATE DUP1 ISZERO DUP1 ISZERO PUSH2 0x6F JUMPI RETURNDATASIZE PUSH1 0x0 DUP1 RETURNDATACOPY RETURNDATASIZE PUSH1 0x0 REVERT JUMPDEST POP SWAP1 POP CALLER PUSH20 0xFFFFFFFFFFFFFFFFFFFFFFFFFFFFFFFFFFFFFFFF AND PUSH32 0xAC631F3001B55EA1509CF3D7E74898F85392A61A76E8149181AE1259622DABC8 DUP3 PUSH1 0x40 MLOAD PUSH2 0xB8 SWAP2 SWAP1 PUSH2 0x111 JUMP JUMPDEST PUSH1 0x40 MLOAD DUP1 SWAP2 SUB SWAP1 LOG2 POP JUMP JUMPDEST PUSH2 0x443 DUP1 PUSH2 0x12D DUP4 CODECOPY ADD SWAP1 JUMP JUMPDEST PUSH1 0x0 PUSH20 0xFFFFFFFFFFFFFFFFFFFFFFFFFFFFFFFFFFFFFFFF DUP3 AND SWAP1 POP SWAP2 SWAP1 POP JUMP JUMPDEST PUSH1 0x0 PUSH2 0xFB DUP3 PUSH2 0xD0 JUMP JUMPDEST SWAP1 POP SWAP2 SWAP1 POP JUMP JUMPDEST PUSH2 0x10B DUP2 PUSH2 0xF0 JUMP JUMPDEST DUP3 MSTORE POP POP JUMP JUMPDEST PUSH1 0x0 PUSH1 0x20 DUP3 ADD SWAP1 POP PUSH2 0x126 PUSH1 0x0 DUP4 ADD DUP5 PUSH2 0x102 JUMP JUMPDEST SWAP3 SWAP2 POP POP JUMP INVALID PUSH1 0x80 PUSH1 0x40 MSTORE PUSH1 0x40 MLOAD PUSH2 0x443 CODESIZE SUB DUP1 PUSH2 0x443 DUP4 CODECOPY DUP2 DUP2 ADD PUSH1 0x40 MSTORE DUP2 ADD SWAP1 PUSH2 0x25 SWAP2 SWAP1 PUSH2 0xCE JUMP JUMPDEST DUP1 PUSH1 0x0 DUP1 PUSH2 0x100 EXP DUP2 SLOAD DUP2 PUSH20 0xFFFFFFFFFFFFFFFFFFFFFFFFFFFFFFFFFFFFFFFF MUL NOT AND SWAP1 DUP4 PUSH20 0xFFFFFFFFFFFFFFFFFFFFFFFFFFFFFFFFFFFFFFFF AND MUL OR SWAP1 SSTORE POP POP PUSH2 0xFB JUMP JUMPDEST PUSH1 0x0 DUP1 REVERT JUMPDEST PUSH1 0x0 PUSH20 0xFFFFFFFFFFFFFFFFFFFFFFFFFFFFFFFFFFFFFFFF DUP3 AND SWAP1 POP SWAP2 SWAP1 POP JUMP JUMPDEST PUSH1 0x0 PUSH2 0x9B DUP3 PUSH2 0x70 JUMP JUMPDEST SWAP1 POP SWAP2 SWAP1 POP JUMP JUMPDEST PUSH2 0xAB DUP2 PUSH2 0x90 JUMP JUMPDEST DUP2 EQ PUSH2 0xB6 JUMPI PUSH1 0x0 DUP1 REVERT JUMPDEST POP JUMP JUMPDEST PUSH1 0x0 DUP2 MLOAD SWAP1 POP PUSH2 0xC8 DUP2 PUSH2 0xA2 JUMP JUMPDEST SWAP3 SWAP2 POP POP JUMP JUMPDEST PUSH1 0x0 PUSH1 0x20 DUP3 DUP5 SUB SLT ISZERO PUSH2 0xE4 JUMPI PUSH2 0xE3 PUSH2 0x6B JUMP JUMPDEST JUMPDEST PUSH1 0x0 PUSH2 0xF2 DUP5 DUP3 DUP6 ADD PUSH2 0xB9 JUMP JUMPDEST SWAP2 POP POP SWAP3 SWAP2 POP POP JUMP JUMPDEST PUSH2 0x339 DUP1 PUSH2 0x10A PUSH1 0x0 CODECOPY PUSH1 0x0 RETURN INVALID PUSH1 0x80 PUSH1 0x40 MSTORE PUSH1 0x4 CALLDATASIZE LT PUSH2 0x34 JUMPI PUSH1 0x0 CALLDATALOAD PUSH1 0xE0 SHR DUP1 PUSH4 0x2E1A7D4D EQ PUSH2 0x39 JUMPI DUP1 PUSH4 0x8DA5CB5B EQ PUSH2 0x62 JUMPI DUP1 PUSH4 0xD0E30DB0 EQ PUSH2 0x8D JUMPI JUMPDEST PUSH1 0x0 DUP1 REVERT JUMPDEST CALLVALUE DUP1 ISZERO PUSH2 0x45 JUMPI PUSH1 0x0 DUP1 REVERT JUMPDEST POP PUSH2 0x60 PUSH1 0x4 DUP1 CALLDATASIZE SUB DUP2 ADD SWAP1 PUSH2 0x5B SWAP2 SWAP1 PUSH2 0x1FD JUMP JUMPDEST PUSH2 0x97 JUMP JUMPDEST STOP JUMPDEST CALLVALUE DUP1 ISZERO PUSH2 0x6E JUMPI PUSH1 0x0 DUP1 REVERT JUMPDEST POP PUSH2 0x77 PUSH2 0x19C JUMP JUMPDEST PUSH1 0x40 MLOAD PUSH2 0x84 SWAP2 SWAP1 PUSH2 0x26B JUMP JUMPDEST PUSH1 0x40 MLOAD DUP1 SWAP2 SUB SWAP1 RETURN JUMPDEST PUSH2 0x95 PUSH2 0x1C0 JUMP JUMPDEST STOP JUMPDEST PUSH1 0x0 DUP1 SLOAD SWAP1 PUSH2 0x100 EXP SWAP1 DIV PUSH20 0xFFFFFFFFFFFFFFFFFFFFFFFFFFFFFFFFFFFFFFFF AND PUSH20 0xFFFFFFFFFFFFFFFFFFFFFFFFFFFFFFFFFFFFFFFF AND CALLER PUSH20 0xFFFFFFFFFFFFFFFFFFFFFFFFFFFFFFFFFFFFFFFF AND EQ PUSH2 0xEF JUMPI PUSH1 0x0 DUP1 REVERT JUMPDEST SELFBALANCE DUP2 GT ISZERO PUSH2 0x132 JUMPI PUSH1 0x40 MLOAD PUSH32 0x8C379A000000000000000000000000000000000000000000000000000000000 DUP2 MSTORE PUSH1 0x4 ADD PUSH2 0x129 SWAP1 PUSH2 0x2E3 JUMP JUMPDEST PUSH1 0x40 MLOAD DUP1 SWAP2 SUB SWAP1 REVERT JUMPDEST PUSH1 0x0 DUP1 SLOAD SWAP1 PUSH2 0x100 EXP SWAP1 DIV PUSH20 0xFFFFFFFFFFFFFFFFFFFFFFFFFFFFFFFFFFFFFFFF AND PUSH20 0xFFFFFFFFFFFFFFFFFFFFFFFFFFFFFFFFFFFFFFFF AND PUSH2 0x8FC DUP3 SWAP1 DUP2 ISZERO MUL SWAP1 PUSH1 0x40 MLOAD PUSH1 0x0 PUSH1 0x40 MLOAD DUP1 DUP4 SUB DUP2 DUP6 DUP9 DUP9 CALL SWAP4 POP POP POP POP ISZERO DUP1 ISZERO PUSH2 0x198 JUMPI RETURNDATASIZE PUSH1 0x0 DUP1 RETURNDATACOPY RETURNDATASIZE PUSH1 0x0 REVERT JUMPDEST POP POP JUMP JUMPDEST PUSH1 0x0 DUP1 SLOAD SWAP1 PUSH2 0x100 EXP SWAP1 DIV PUSH20 0xFFFFFFFFFFFFFFFFFFFFFFFFFFFFFFFFFFFFFFFF AND DUP2 JUMP JUMPDEST JUMP JUMPDEST PUSH1 0x0 DUP1 REVERT JUMPDEST PUSH1 0x0 DUP2 SWAP1 POP SWAP2 SWAP1 POP JUMP JUMPDEST PUSH2 0x1DA DUP2 PUSH2 0x1C7 JUMP JUMPDEST DUP2 EQ PUSH2 0x1E5 JUMPI PUSH1 0x0 DUP1 REVERT JUMPDEST POP JUMP JUMPDEST PUSH1 0x0 DUP2 CALLDATALOAD SWAP1 POP PUSH2 0x1F7 DUP2 PUSH2 0x1D1 JUMP JUMPDEST SWAP3 SWAP2 POP POP JUMP JUMPDEST PUSH1 0x0 PUSH1 0x20 DUP3 DUP5 SUB SLT ISZERO PUSH2 0x213 JUMPI PUSH2 0x212 PUSH2 0x1C2 JUMP JUMPDEST JUMPDEST PUSH1 0x0 PUSH2 0x221 DUP5 DUP3 DUP6 ADD PUSH2 0x1E8 JUMP JUMPDEST SWAP2 POP POP SWAP3 SWAP2 POP POP JUMP JUMPDEST PUSH1 0x0 PUSH20 0xFFFFFFFFFFFFFFFFFFFFFFFFFFFFFFFFFFFFFFFF DUP3 AND SWAP1 POP SWAP2 SWAP1 POP JUMP JUMPDEST PUSH1 0x0 PUSH2 0x255 DUP3 PUSH2 0x22A JUMP JUMPDEST SWAP1 POP SWAP2 SWAP1 POP JUMP JUMPDEST PUSH2 0x265 DUP2 PUSH2 0x24A JUMP JUMPDEST DUP3 MSTORE POP POP JUMP JUMPDEST PUSH1 0x0 PUSH1 0x20 DUP3 ADD SWAP1 POP PUSH2 0x280 PUSH1 0x0 DUP4 ADD DUP5 PUSH2 0x25C JUMP JUMPDEST SWAP3 SWAP2 POP POP JUMP JUMPDEST PUSH1 0x0 DUP3 DUP3 MSTORE PUSH1 0x20 DUP3 ADD SWAP1 POP SWAP3 SWAP2 POP POP JUMP JUMPDEST PUSH32 0x496E73756666696369656E742066756E64730000000000000000000000000000 PUSH1 0x0 DUP3 ADD MSTORE POP JUMP JUMPDEST PUSH1 0x0 PUSH2 0x2CD PUSH1 0x12 DUP4 PUSH2 0x286 JUMP JUMPDEST SWAP2 POP PUSH2 0x2D8 DUP3 PUSH2 0x297 JUMP JUMPDEST PUSH1 0x20 DUP3 ADD SWAP1 POP SWAP2 SWAP1 POP JUMP JUMPDEST PUSH1 0x0 PUSH1 0x20 DUP3 ADD SWAP1 POP DUP2 DUP2 SUB PUSH1 0x0 DUP4 ADD MSTORE PUSH2 0x2FC DUP2 PUSH2 0x2C0 JUMP JUMPDEST SWAP1 POP SWAP2 SWAP1 POP JUMP INVALID LOG2 PUSH5 0x6970667358 0x22 SLT KECCAK256 DUP8 CALLER 0xB1 BASEFEE 0xFB DUP7 LOG2 0xAF SWAP11 0xA7 ISZERO 0xF8 0x28 JUMP GASLIMIT SHR BYTE 0xEB 0xB7 0xF9 MOD SWAP8 PUSH12 0x84E59EF692BF36258764736F PUSH13 0x634300080B0033A26469706673 PC 0x22 SLT KECCAK256 0xCC STATICCALL DUP13 0xE4 0x5D 0xD4 LOG1 0x5D CREATE2 CREATE 0x24 DUP3 SWAP7 0xEA CALLCODE PUSH5 0xF8F09D6B63 CALLDATALOAD 0xA9 DUP2 0xB6 0xD3 0xC3 SWAP11 0x2E BLOCKHASH 0xD4 SWAP9 PUSH5 0x736F6C6343 STOP ADDMOD SIGNEXTEND STOP CALLER "},"gasEstimates":{"creation":{"codeDepositCost":"289000","executionCost":"331","totalCost":"289331"},"external":{"createAccount()":"infinite"}},"methodIdentifiers":{"createAccount()":"9dca362f"}},"storageLayout":{"storage":[],"types":null},"userdoc":{"kind":"user","methods":{},"version":1}}