{
  "abi": [
    {
      "inputs": [
        {
          "internalType": "uint256",
          "name": "x",
          "type": "uint256"
        }
      ],
      "name": "PRBMathUD60x18__Exp2InputTooBig",
      "type": "error"
    },
    {
      "inputs": [
        {
          "internalType": "uint256",
          "name": "x",
          "type": "uint256"
        }
      ],
      "name": "PRBMathUD60x18__ExpInputTooBig",
      "type": "error"
    },
    {
      "inputs": [
        {
          "internalType": "uint256",
          "name": "prod1",
          "type": "uint256"
        }
      ],
      "name": "PRBMath__MulDivFixedPointOverflow",
      "type": "error"
    },
    {
      "inputs": [
        {
          "internalType": "uint256",
          "name": "prod1",
          "type": "uint256"
        },
        {
          "internalType": "uint256",
          "name": "denominator",
          "type": "uint256"
        }
      ],
      "name": "PRBMath__MulDivOverflow",
      "type": "error"
    },
    {
      "anonymous": false,
      "inputs": [
        {
          "indexed": true,
          "internalType": "bytes32",
          "name": "username",
          "type": "bytes32"
        },
        {
          "indexed": false,
          "internalType": "address",
          "name": "originaladdress",
          "type": "address"
        }
      ],
      "name": "AccountCreated",
      "type": "event"
    },
    {
      "anonymous": false,
      "inputs": [
        {
          "indexed": true,
          "internalType": "address",
          "name": "marketCreatorAddress",
          "type": "address"
        },
        {
          "indexed": true,
          "internalType": "uint256",
          "name": "marketIndex",
          "type": "uint256"
        },
        {
          "indexed": false,
          "internalType": "uint256",
          "name": "betIndex",
          "type": "uint256"
        }
      ],
      "name": "BetMade",
      "type": "event"
    },
    {
      "anonymous": false,
      "inputs": [
        {
          "indexed": true,
          "internalType": "address",
          "name": "useraddress",
          "type": "address"
        },
        {
          "indexed": false,
          "internalType": "uint256",
          "name": "index",
          "type": "uint256"
        }
      ],
      "name": "MarketCreated",
      "type": "event"
    },
    {
      "anonymous": false,
      "inputs": [
        {
          "indexed": true,
          "internalType": "address",
          "name": "useraddress",
          "type": "address"
        },
        {
          "indexed": false,
          "internalType": "uint256",
          "name": "index",
          "type": "uint256"
        }
      ],
      "name": "MarketResolved",
      "type": "event"
    },
    {
      "inputs": [
        {
          "internalType": "bytes32",
          "name": "infoMultihash",
          "type": "bytes32"
        },
        {
          "internalType": "uint256",
          "name": "pool",
          "type": "uint256"
        },
        {
          "internalType": "uint8",
          "name": "prob",
          "type": "uint8"
        },
        {
          "internalType": "uint256",
          "name": "closesAt",
          "type": "uint256"
        }
      ],
      "name": "createMarket",
      "outputs": [],
      "stateMutability": "nonpayable",
      "type": "function"
    },
    {
      "inputs": [
        {
          "internalType": "address",
          "name": "userAddress",
          "type": "address"
        },
        {
          "internalType": "uint256",
          "name": "marketIndex",
          "type": "uint256"
        },
        {
          "internalType": "uint256",
          "name": "betIndex",
          "type": "uint256"
        }
      ],
      "name": "getBet",
      "outputs": [
        {
          "components": [
            {
              "internalType": "address",
              "name": "useraddress",
              "type": "address"
            },
            {
              "internalType": "uint256",
              "name": "betsize",
              "type": "uint256"
            },
            {
              "internalType": "uint256",
              "name": "numberOfShares",
              "type": "uint256"
            },
            {
              "internalType": "uint8",
              "name": "outcome",
              "type": "uint8"
            }
          ],
          "internalType": "struct PredictionMarket.Bet",
          "name": "",
          "type": "tuple"
        }
      ],
      "stateMutability": "view",
      "type": "function"
    },
    {
      "inputs": [
        {
          "internalType": "address",
          "name": "userAddress",
          "type": "address"
        },
        {
          "internalType": "uint256",
          "name": "index",
          "type": "uint256"
        }
      ],
      "name": "getMarket",
      "outputs": [
        {
          "internalType": "uint256",
          "name": "pool",
          "type": "uint256"
        },
        {
          "internalType": "uint8",
          "name": "prob",
          "type": "uint8"
        },
        {
          "internalType": "bytes32",
          "name": "infoMultihash",
          "type": "bytes32"
        },
        {
          "internalType": "uint256",
          "name": "numberOfBets",
          "type": "uint256"
        },
        {
          "internalType": "uint256",
          "name": "closesAt",
          "type": "uint256"
        }
      ],
      "stateMutability": "view",
      "type": "function"
    },
    {
      "inputs": [
        {
          "internalType": "address",
          "name": "userAddress",
          "type": "address"
        }
      ],
      "name": "getUser",
      "outputs": [
        {
          "internalType": "bytes32",
          "name": "username",
          "type": "bytes32"
        },
        {
          "internalType": "uint256",
          "name": "balance",
          "type": "uint256"
        },
        {
          "internalType": "bytes32",
          "name": "userinfoMultihash",
          "type": "bytes32"
        },
        {
          "internalType": "uint256",
          "name": "numberOfMarkets",
          "type": "uint256"
        }
      ],
      "stateMutability": "view",
      "type": "function"
    },
    {
      "inputs": [
        {
          "internalType": "address",
          "name": "marketCreatorAddress",
          "type": "address"
        },
        {
          "internalType": "uint256",
          "name": "marketIndex",
          "type": "uint256"
        },
        {
          "internalType": "uint256",
          "name": "numberOfShares",
          "type": "uint256"
        },
        {
          "internalType": "uint8",
          "name": "outcome",
          "type": "uint8"
        }
      ],
      "name": "makeBet",
      "outputs": [],
      "stateMutability": "nonpayable",
      "type": "function"
    },
    {
      "inputs": [
        {
          "internalType": "bytes32",
          "name": "username",
          "type": "bytes32"
        },
        {
          "internalType": "bytes32",
          "name": "userinfoMultihash",
          "type": "bytes32"
        }
      ],
      "name": "register",
      "outputs": [],
      "stateMutability": "nonpayable",
      "type": "function"
    },
    {
      "inputs": [
        {
          "internalType": "uint256",
          "name": "marketIndex",
          "type": "uint256"
        },
        {
          "internalType": "uint8",
          "name": "outcome",
          "type": "uint8"
        }
      ],
      "name": "resolve",
      "outputs": [],
      "stateMutability": "nonpayable",
      "type": "function"
    },
    {
      "inputs": [
        {
          "internalType": "bytes32",
          "name": "userinfoMultihash",
          "type": "bytes32"
        }
      ],
      "name": "updateUserInfo",
      "outputs": [],
      "stateMutability": "nonpayable",
      "type": "function"
    },
    {
      "inputs": [
        {
          "internalType": "bytes32",
          "name": "",
          "type": "bytes32"
        }
      ],
      "name": "usernames",
      "outputs": [
        {
          "internalType": "address",
          "name": "",
          "type": "address"
        }
      ],
      "stateMutability": "view",
      "type": "function"
    },
    {
      "inputs": [
        {
          "internalType": "address",
          "name": "",
          "type": "address"
        }
      ],
      "name": "users",
      "outputs": [
        {
          "internalType": "bytes32",
          "name": "username",
          "type": "bytes32"
        },
        {
          "internalType": "uint256",
          "name": "balance",
          "type": "uint256"
        },
        {
          "internalType": "bytes32",
          "name": "userinfoMultihash",
          "type": "bytes32"
        },
        {
          "internalType": "uint256",
          "name": "numberOfMarkets",
          "type": "uint256"
        }
      ],
      "stateMutability": "view",
      "type": "function"
    }
  ],
  "evm": {
    "bytecode": {
      "linkReferences": {},
      "object": "608060405234801561001057600080fd5b50612e12806100206000396000f3fe608060405234801561001057600080fd5b506004361061009e5760003560e01c80639c0e1608116100665780639c0e16081461015a578063a0e1a3a514610176578063a87430ba14610192578063c97a23bc146101c5578063ec4d88d7146101f95761009e565b80632f926732146100a35780636051697e146100bf57806366cf96a6146100db5780636f77926b146100f757806387734d531461012a575b600080fd5b6100bd60048036038101906100b89190612187565b610229565b005b6100d960048036038101906100d49190612294565b610498565b005b6100f560048036038101906100f091906122fb565b610ae9565b005b610111600480360381019061010c9190612362565b610d5a565b60405161012194939291906123ad565b60405180910390f35b610144600480360381019061013f91906123f2565b610dc6565b60405161015191906124c7565b60405180910390f35b610174600480360381019061016f91906124e2565b610ed5565b005b610190600480360381019061018b9190612522565b611344565b005b6101ac60048036038101906101a79190612362565b6113dd565b6040516101bc94939291906123ad565b60405180910390f35b6101df60048036038101906101da919061254f565b61140d565b6040516101f095949392919061259e565b60405180910390f35b610213600480360381019061020e9190612522565b6114a5565b6040516102209190612600565b60405180910390f35b6000801b82141561026f576040517f08c379a000000000000000000000000000000000000000000000000000000000815260040161026690612678565b60405180910390fd5b600073ffffffffffffffffffffffffffffffffffffffff166001600084815260200190815260200160002060009054906101000a900473ffffffffffffffffffffffffffffffffffffffff1673ffffffffffffffffffffffffffffffffffffffff1614610311576040517f08c379a0000000000000000000000000000000000000000000000000000000008152600401610308906126e4565b60405180910390fd5b6000801b6000803373ffffffffffffffffffffffffffffffffffffffff1673ffffffffffffffffffffffffffffffffffffffff1681526020019081526020016000206000015414610397576040517f08c379a000000000000000000000000000000000000000000000000000000000815260040161038e90612750565b60405180910390fd5b60008060003373ffffffffffffffffffffffffffffffffffffffff1673ffffffffffffffffffffffffffffffffffffffff16815260200190815260200160002090508281600001819055508181600201819055506103e8670de0b6b3a7640000610401919061279f565b8160010181905550336001600085815260200190815260200160002060006101000a81548173ffffffffffffffffffffffffffffffffffffffff021916908373ffffffffffffffffffffffffffffffffffffffff160217905550827fd61caa23c7e60d69f689a83965592bc26f0dee75c1e247864bb07bbb6fdafe473360405161048b9190612600565b60405180910390a2505050565b60008060003373ffffffffffffffffffffffffffffffffffffffff1673ffffffffffffffffffffffffffffffffffffffff16815260200190815260200160002090506000801b81600001541415610524576040517f08c379a000000000000000000000000000000000000000000000000000000000815260040161051b90612845565b60405180910390fd5b60008311610567576040517f08c379a000000000000000000000000000000000000000000000000000000000815260040161055e906128b1565b60405180910390fd5b60008260ff16148061057c575060018260ff16145b6105bb576040517f08c379a00000000000000000000000000000000000000000000000000000000081526004016105b29061291d565b60405180910390fd5b60008060008773ffffffffffffffffffffffffffffffffffffffff1673ffffffffffffffffffffffffffffffffffffffff16815260200190815260200160002090506000801b81600001541415610647576040517f08c379a000000000000000000000000000000000000000000000000000000000815260040161063e90612989565b60405180910390fd5b600081600401600087815260200190815260200160002090506000816000015414156106a8576040517f08c379a000000000000000000000000000000000000000000000000000000000815260040161069f90612989565b60405180910390fd5b8060050160009054906101000a900460ff16156106fa576040517f08c379a00000000000000000000000000000000000000000000000000000000081526004016106f1906129f5565b60405180910390fd5b42816004015411610740576040517f08c379a000000000000000000000000000000000000000000000000000000000815260040161073790612a61565b60405180910390fd5b6000670de0b6b3a764000090506000808660ff1614156107915760648360010160009054906101000a900460ff1660ff168460000154610780919061279f565b61078a9190612ab0565b90506107d0565b60648360010160009054906101000a900460ff1660646107b19190612ae1565b60ff1684600001546107c3919061279f565b6107cd9190612ab0565b90505b60005b836003015481101561085557600084600601600083815260200190815260200160002090508760ff168160030160009054906101000a900460ff1660ff16141561082e578060010154836108279190612b15565b9250610841565b80600201548461083e9190612b15565b93505b50808061084d90612b6b565b9150506107d3565b5060006108a9610876610871858b6114d890919063ffffffff16565b6114f5565b61089b8a61088d87876114d890919063ffffffff16565b61158690919063ffffffff16565b61158690919063ffffffff16565b90506001670de0b6b3a76400006108c0919061279f565b811015610902576040517f08c379a00000000000000000000000000000000000000000000000000000000081526004016108f990612c00565b60405180910390fd5b8086600101541015610949576040517f08c379a000000000000000000000000000000000000000000000000000000000815260040161094090612c6c565b60405180910390fd5b61095161210b565b33816000019073ffffffffffffffffffffffffffffffffffffffff16908173ffffffffffffffffffffffffffffffffffffffff16815250508187600101600082825461099d9190612c8c565b92505081905550818160200181815250508881604001818152505087816060019060ff16908160ff1681525050808560060160008760030154815260200190815260200160002060008201518160000160006101000a81548173ffffffffffffffffffffffffffffffffffffffff021916908373ffffffffffffffffffffffffffffffffffffffff160217905550602082015181600101556040820151816002015560608201518160030160006101000a81548160ff021916908360ff160217905550905050846003016000815480929190610a7890612b6b565b9190505550898b73ffffffffffffffffffffffffffffffffffffffff167faef4e091ec4a3800e3135934210edcf6949b208c449c51fe586e99d1700ba2c060018860030154610ac79190612c8c565b604051610ad49190612cc0565b60405180910390a35050505050505050505050565b60008060003373ffffffffffffffffffffffffffffffffffffffff1673ffffffffffffffffffffffffffffffffffffffff16815260200190815260200160002090506000801b81600001541415610b75576040517f08c379a0000000000000000000000000000000000000000000000000000000008152600401610b6c90612845565b60405180910390fd5b600a670de0b6b3a7640000610b8a919061279f565b841015610bcc576040517f08c379a0000000000000000000000000000000000000000000000000000000008152600401610bc390612d27565b60405180910390fd5b60018360ff1610158015610be4575060638360ff1611155b610c23576040517f08c379a0000000000000000000000000000000000000000000000000000000008152600401610c1a90612d93565b60405180910390fd5b8381600101541015610c6a576040517f08c379a0000000000000000000000000000000000000000000000000000000008152600401610c6190612c6c565b60405180910390fd5b6000816004016000836003015481526020019081526020016000209050816003016000815480929190610c9c90612b6b565b919050555084826001016000828254610cb59190612c8c565b92505081905550848160000181905550838160010160006101000a81548160ff021916908360ff1602179055508581600201819055508281600401819055503373ffffffffffffffffffffffffffffffffffffffff167fa69fa77c6a90b171cf4e3d9a9dd6c4e56fbd1fbbdcf3925eaf600ccaa917feab60018460030154610d3d9190612c8c565b604051610d4a9190612cc0565b60405180910390a2505050505050565b60008060008060008060008773ffffffffffffffffffffffffffffffffffffffff1673ffffffffffffffffffffffffffffffffffffffff168152602001908152602001600020905080600001548160010154826002015483600301549450945094509450509193509193565b610dce61210b565b60008060008673ffffffffffffffffffffffffffffffffffffffff1673ffffffffffffffffffffffffffffffffffffffff168152602001908152602001600020600401600085815260200190815260200160002060060160008481526020019081526020016000209050806040518060800160405290816000820160009054906101000a900473ffffffffffffffffffffffffffffffffffffffff1673ffffffffffffffffffffffffffffffffffffffff1673ffffffffffffffffffffffffffffffffffffffff16815260200160018201548152602001600282015481526020016003820160009054906101000a900460ff1660ff1660ff16815250509150509392505050565b60008060003373ffffffffffffffffffffffffffffffffffffffff1673ffffffffffffffffffffffffffffffffffffffff16815260200190815260200160002090506000801b81600001541415610f61576040517f08c379a0000000000000000000000000000000000000000000000000000000008152600401610f5890612845565b60405180910390fd5b60008160040160008581526020019081526020016000209050600081600001541415610fc2576040517f08c379a0000000000000000000000000000000000000000000000000000000008152600401610fb990612989565b60405180910390fd5b8060050160009054906101000a900460ff1615611014576040517f08c379a000000000000000000000000000000000000000000000000000000000815260040161100b906129f5565b60405180910390fd5b6000670de0b6b3a764000090506000808360000154905060008660ff16141561106e5760648460010160009054906101000a900460ff1660ff16856000015461105d919061279f565b6110679190612ab0565b91506110ad565b60648460010160009054906101000a900460ff16606461108e9190612ae1565b60ff1685600001546110a0919061279f565b6110aa9190612ab0565b91505b60005b846003015481101561114357600085600601600083815260200190815260200160002090508060010154836110e59190612b15565b92508760ff168160030160009054906101000a900460ff1660ff16141561111d578060020154856111169190612b15565b945061112f565b80600101548461112d9190612b15565b505b50808061113b90612b6b565b9150506110b0565b506000805b856003015481101561127657600086600601600083815260200190815260200160002090508860ff168160030160009054906101000a900460ff1660ff16141561126257600081600101546111bc876111ae8a86600201546114d890919063ffffffff16565b61158690919063ffffffff16565b6111c69190612b15565b9050806000808460000160009054906101000a900473ffffffffffffffffffffffffffffffffffffffff1673ffffffffffffffffffffffffffffffffffffffff1673ffffffffffffffffffffffffffffffffffffffff168152602001908152602001600020600101600082825461123d9190612b15565b9250508190555080846112509190612b15565b9350808561125e9190612c8c565b9450505b50808061126e90612b6b565b915050611148565b50816000803373ffffffffffffffffffffffffffffffffffffffff1673ffffffffffffffffffffffffffffffffffffffff16815260200190815260200160002060010160008282546112c89190612b15565b9250508190555060018560050160006101000a81548160ff0219169083151502179055503373ffffffffffffffffffffffffffffffffffffffff167f316a0bcd9820c43f9ba8738fd680d536a8ac65080f56f96833f696f6dd5a12fd896040516113329190612cc0565b60405180910390a25050505050505050565b60008060003373ffffffffffffffffffffffffffffffffffffffff1673ffffffffffffffffffffffffffffffffffffffff16815260200190815260200160002090506000801b816000015414156113d0576040517f08c379a00000000000000000000000000000000000000000000000000000000081526004016113c790612845565b60405180910390fd5b8181600201819055505050565b60006020528060005260406000206000915090508060000154908060010154908060020154908060030154905084565b6000806000806000806000808973ffffffffffffffffffffffffffffffffffffffff1673ffffffffffffffffffffffffffffffffffffffff1681526020019081526020016000206004016000888152602001908152602001600020905080600001548160010160009054906101000a900460ff1682600201548360030154846004015495509550955095509550509295509295909350565b60016020528060005260406000206000915054906101000a900473ffffffffffffffffffffffffffffffffffffffff1681565b60006114ed83670de0b6b3a76400008461159a565b905092915050565b6000680736ea4425c11ac631821061154457816040517f315da06800000000000000000000000000000000000000000000000000000000815260040161153b9190612cc0565b60405180910390fd5b60006714057b7ef767814f8302905061157e670de0b6b3a76400006706f05b59d3b2000083018161157857611577612a81565b5b046116b0565b915050919050565b60006115928383611731565b905092915050565b6000806000801985870985870292508281108382030391505060008114156115d6578382816115cc576115cb612a81565b5b04925050506116a9565b83811061161c5780846040517f773cc18c000000000000000000000000000000000000000000000000000000008152600401611613929190612db3565b60405180910390fd5b60008486880990508281118203915080830392506000600186190186169050808604955080840493506001818260000304019050808302841793506000600287600302189050808702600203810290508087026002038102905080870260020381029050808702600203810290508087026002038102905080870260020381029050808502955050505050505b9392505050565b6000680a688906bd8b00000082106116ff57816040517f4a4f26f10000000000000000000000000000000000000000000000000000000081526004016116f69190612cc0565b60405180910390fd5b6000670de0b6b3a7640000604084901b8161171d5761171c612a81565b5b0490506117298161182f565b915050919050565b60008060008019848609848602925082811083820303915050670de0b6b3a7640000811061179657806040517fd31b340200000000000000000000000000000000000000000000000000000000815260040161178d9190612cc0565b60405180910390fd5b600080670de0b6b3a764000086880991506706f05b59d3b1ffff8211905060008314156117e35780670de0b6b3a764000085816117d6576117d5612a81565b5b0401945050505050611829565b807faccb18165bd6fe31ae1cf318dc5b51eee0e1ba569b88cd74c1773b91fac1066960016204000080600003040186851186030262040000858803041702019450505050505b92915050565b600077800000000000000000000000000000000000000000000000905060006780000000000000008316111561187257604068016a09e667f3bcc9098202901c90505b6000674000000000000000831611156118985760406801306fe0a31b7152df8202901c90505b6000672000000000000000831611156118be5760406801172b83c7d517adce8202901c90505b6000671000000000000000831611156118e457604068010b5586cf9890f62a8202901c90505b60006708000000000000008316111561190a5760406801059b0d31585743ae8202901c90505b600067040000000000000083161115611930576040680102c9a3e778060ee78202901c90505b60006702000000000000008316111561195657604068010163da9fb33356d88202901c90505b60006701000000000000008316111561197c576040680100b1afa5abcbed618202901c90505b60006680000000000000831611156119a157604068010058c86da1c09ea28202901c90505b60006640000000000000831611156119c65760406801002c605e2e8cec508202901c90505b60006620000000000000831611156119eb576040680100162f3904051fa18202901c90505b6000661000000000000083161115611a105760406801000b175effdc76ba8202901c90505b6000660800000000000083161115611a35576040680100058ba01fb9f96d8202901c90505b6000660400000000000083161115611a5a57604068010002c5cc37da94928202901c90505b6000660200000000000083161115611a7f5760406801000162e525ee05478202901c90505b6000660100000000000083161115611aa457604068010000b17255775c048202901c90505b60006580000000000083161115611ac85760406801000058b91b5bc9ae8202901c90505b60006540000000000083161115611aec576040680100002c5c89d5ec6d8202901c90505b60006520000000000083161115611b1057604068010000162e43f4f8318202901c90505b60006510000000000083161115611b34576040680100000b1721bcfc9a8202901c90505b60006508000000000083161115611b5857604068010000058b90cf1e6e8202901c90505b60006504000000000083161115611b7c5760406801000002c5c863b73f8202901c90505b60006502000000000083161115611ba0576040680100000162e430e5a28202901c90505b60006501000000000083161115611bc45760406801000000b1721835518202901c90505b600064800000000083161115611be7576040680100000058b90c0b498202901c90505b600064400000000083161115611c0a57604068010000002c5c8601cc8202901c90505b600064200000000083161115611c2d5760406801000000162e42fff08202901c90505b600064100000000083161115611c5057604068010000000b17217fbb8202901c90505b600064080000000083161115611c735760406801000000058b90bfce8202901c90505b600064040000000083161115611c96576040680100000002c5c85fe38202901c90505b600064020000000083161115611cb957604068010000000162e42ff18202901c90505b600064010000000083161115611cdc576040680100000000b17217f88202901c90505b6000638000000083161115611cfe57604068010000000058b90bfc8202901c90505b6000634000000083161115611d205760406801000000002c5c85fe8202901c90505b6000632000000083161115611d42576040680100000000162e42ff8202901c90505b6000631000000083161115611d645760406801000000000b17217f8202901c90505b6000630800000083161115611d86576040680100000000058b90c08202901c90505b6000630400000083161115611da857604068010000000002c5c8608202901c90505b6000630200000083161115611dca5760406801000000000162e4308202901c90505b6000630100000083161115611dec57604068010000000000b172188202901c90505b60006280000083161115611e0d5760406801000000000058b90c8202901c90505b60006240000083161115611e2e576040680100000000002c5c868202901c90505b60006220000083161115611e4f57604068010000000000162e438202901c90505b60006210000083161115611e70576040680100000000000b17218202901c90505b60006208000083161115611e9157604068010000000000058b918202901c90505b60006204000083161115611eb25760406801000000000002c5c88202901c90505b60006202000083161115611ed3576040680100000000000162e48202901c90505b60006201000083161115611ef45760406801000000000000b1728202901c90505b600061800083161115611f14576040680100000000000058b98202901c90505b600061400083161115611f3457604068010000000000002c5d8202901c90505b600061200083161115611f545760406801000000000000162e8202901c90505b600061100083161115611f7457604068010000000000000b178202901c90505b600061080083161115611f945760406801000000000000058c8202901c90505b600061040083161115611fb4576040680100000000000002c68202901c90505b600061020083161115611fd4576040680100000000000001638202901c90505b600061010083161115611ff4576040680100000000000000b18202901c90505b6000608083161115612013576040680100000000000000598202901c90505b60006040831611156120325760406801000000000000002c8202901c90505b6000602083161115612051576040680100000000000000168202901c90505b60006010831611156120705760406801000000000000000b8202901c90505b600060088316111561208f576040680100000000000000068202901c90505b60006004831611156120ae576040680100000000000000038202901c90505b60006002831611156120cd576040680100000000000000018202901c90505b60006001831611156120ec576040680100000000000000018202901c90505b670de0b6b3a764000081029050604082901c60bf0381901c9050919050565b6040518060800160405280600073ffffffffffffffffffffffffffffffffffffffff1681526020016000815260200160008152602001600060ff1681525090565b600080fd5b6000819050919050565b61216481612151565b811461216f57600080fd5b50565b6000813590506121818161215b565b92915050565b6000806040838503121561219e5761219d61214c565b5b60006121ac85828601612172565b92505060206121bd85828601612172565b9150509250929050565b600073ffffffffffffffffffffffffffffffffffffffff82169050919050565b60006121f2826121c7565b9050919050565b612202816121e7565b811461220d57600080fd5b50565b60008135905061221f816121f9565b92915050565b6000819050919050565b61223881612225565b811461224357600080fd5b50565b6000813590506122558161222f565b92915050565b600060ff82169050919050565b6122718161225b565b811461227c57600080fd5b50565b60008135905061228e81612268565b92915050565b600080600080608085870312156122ae576122ad61214c565b5b60006122bc87828801612210565b94505060206122cd87828801612246565b93505060406122de87828801612246565b92505060606122ef8782880161227f565b91505092959194509250565b600080600080608085870312156123155761231461214c565b5b600061232387828801612172565b945050602061233487828801612246565b93505060406123458782880161227f565b925050606061235687828801612246565b91505092959194509250565b6000602082840312156123785761237761214c565b5b600061238684828501612210565b91505092915050565b61239881612151565b82525050565b6123a781612225565b82525050565b60006080820190506123c2600083018761238f565b6123cf602083018661239e565b6123dc604083018561238f565b6123e9606083018461239e565b95945050505050565b60008060006060848603121561240b5761240a61214c565b5b600061241986828701612210565b935050602061242a86828701612246565b925050604061243b86828701612246565b9150509250925092565b61244e816121e7565b82525050565b61245d81612225565b82525050565b61246c8161225b565b82525050565b6080820160008201516124886000850182612445565b50602082015161249b6020850182612454565b5060408201516124ae6040850182612454565b5060608201516124c16060850182612463565b50505050565b60006080820190506124dc6000830184612472565b92915050565b600080604083850312156124f9576124f861214c565b5b600061250785828601612246565b92505060206125188582860161227f565b9150509250929050565b6000602082840312156125385761253761214c565b5b600061254684828501612172565b91505092915050565b600080604083850312156125665761256561214c565b5b600061257485828601612210565b925050602061258585828601612246565b9150509250929050565b6125988161225b565b82525050565b600060a0820190506125b3600083018861239e565b6125c0602083018761258f565b6125cd604083018661238f565b6125da606083018561239e565b6125e7608083018461239e565b9695505050505050565b6125fa816121e7565b82525050565b600060208201905061261560008301846125f1565b92915050565b600082825260208201905092915050565b7f757365726e616d65207265717569726564000000000000000000000000000000600082015250565b600061266260118361261b565b915061266d8261262c565b602082019050919050565b6000602082019050818103600083015261269181612655565b9050919050565b7f757365726e616d652074616b656e000000000000000000000000000000000000600082015250565b60006126ce600e8361261b565b91506126d982612698565b602082019050919050565b600060208201905081810360008301526126fd816126c1565b9050919050565b7f616c726561647920726567697374657265640000000000000000000000000000600082015250565b600061273a60128361261b565b915061274582612704565b602082019050919050565b600060208201905081810360008301526127698161272d565b9050919050565b7f4e487b7100000000000000000000000000000000000000000000000000000000600052601160045260246000fd5b60006127aa82612225565b91506127b583612225565b9250817fffffffffffffffffffffffffffffffffffffffffffffffffffffffffffffffff04831182151516156127ee576127ed612770565b5b828202905092915050565b7f6e6f207573657220666f722074686973206163636f756e740000000000000000600082015250565b600061282f60188361261b565b915061283a826127f9565b602082019050919050565b6000602082019050818103600083015261285e81612822565b9050919050565b7f6e756d626572206f662073686172657320696e76616c69640000000000000000600082015250565b600061289b60188361261b565b91506128a682612865565b602082019050919050565b600060208201905081810360008301526128ca8161288e565b9050919050565b7f6f7574636f6d6520696e76616c69640000000000000000000000000000000000600082015250565b6000612907600f8361261b565b9150612912826128d1565b602082019050919050565b60006020820190508181036000830152612936816128fa565b9050919050565b7f696e76616c6964206d61726b6574000000000000000000000000000000000000600082015250565b6000612973600e8361261b565b915061297e8261293d565b602082019050919050565b600060208201905081810360008301526129a281612966565b9050919050565b7f6d61726b6574207265736f6c7665640000000000000000000000000000000000600082015250565b60006129df600f8361261b565b91506129ea826129a9565b602082019050919050565b60006020820190508181036000830152612a0e816129d2565b9050919050565b7f6d61726b657420636c6f73656400000000000000000000000000000000000000600082015250565b6000612a4b600d8361261b565b9150612a5682612a15565b602082019050919050565b60006020820190508181036000830152612a7a81612a3e565b9050919050565b7f4e487b7100000000000000000000000000000000000000000000000000000000600052601260045260246000fd5b6000612abb82612225565b9150612ac683612225565b925082612ad657612ad5612a81565b5b828204905092915050565b6000612aec8261225b565b9150612af78361225b565b925082821015612b0a57612b09612770565b5b828203905092915050565b6000612b2082612225565b9150612b2b83612225565b9250827fffffffffffffffffffffffffffffffffffffffffffffffffffffffffffffffff03821115612b6057612b5f612770565b5b828201905092915050565b6000612b7682612225565b91507fffffffffffffffffffffffffffffffffffffffffffffffffffffffffffffffff821415612ba957612ba8612770565b5b600182019050919050565b7f6265742073697a6520746f6f20736d616c6c0000000000000000000000000000600082015250565b6000612bea60128361261b565b9150612bf582612bb4565b602082019050919050565b60006020820190508181036000830152612c1981612bdd565b9050919050565b7f696e73756666696369656e742062616c616e6365000000000000000000000000600082015250565b6000612c5660148361261b565b9150612c6182612c20565b602082019050919050565b60006020820190508181036000830152612c8581612c49565b9050919050565b6000612c9782612225565b9150612ca283612225565b925082821015612cb557612cb4612770565b5b828203905092915050565b6000602082019050612cd5600083018461239e565b92915050565b7f706f6f6c20746f6f20736d616c6c000000000000000000000000000000000000600082015250565b6000612d11600e8361261b565b9150612d1c82612cdb565b602082019050919050565b60006020820190508181036000830152612d4081612d04565b9050919050565b7f70726f62206f7574206f662072616e6765000000000000000000000000000000600082015250565b6000612d7d60118361261b565b9150612d8882612d47565b602082019050919050565b60006020820190508181036000830152612dac81612d70565b9050919050565b6000604082019050612dc8600083018561239e565b612dd5602083018461239e565b939250505056fea26469706673582212207fe7eea3765689334337932c90353a39bed2621f8e72b8109f474e10349baea364736f6c634300080b0033",
      "opcodes": "PUSH1 0x80 PUSH1 0x40 MSTORE CALLVALUE DUP1 ISZERO PUSH2 0x10 JUMPI PUSH1 0x0 DUP1 REVERT JUMPDEST POP PUSH2 0x2E12 DUP1 PUSH2 0x20 PUSH1 0x0 CODECOPY PUSH1 0x0 RETURN INVALID PUSH1 0x80 PUSH1 0x40 MSTORE CALLVALUE DUP1 ISZERO PUSH2 0x10 JUMPI PUSH1 0x0 DUP1 REVERT JUMPDEST POP PUSH1 0x4 CALLDATASIZE LT PUSH2 0x9E JUMPI PUSH1 0x0 CALLDATALOAD PUSH1 0xE0 SHR DUP1 PUSH4 0x9C0E1608 GT PUSH2 0x66 JUMPI DUP1 PUSH4 0x9C0E1608 EQ PUSH2 0x15A JUMPI DUP1 PUSH4 0xA0E1A3A5 EQ PUSH2 0x176 JUMPI DUP1 PUSH4 0xA87430BA EQ PUSH2 0x192 JUMPI DUP1 PUSH4 0xC97A23BC EQ PUSH2 0x1C5 JUMPI DUP1 PUSH4 0xEC4D88D7 EQ PUSH2 0x1F9 JUMPI PUSH2 0x9E JUMP JUMPDEST DUP1 PUSH4 0x2F926732 EQ PUSH2 0xA3 JUMPI DUP1 PUSH4 0x6051697E EQ PUSH2 0xBF JUMPI DUP1 PUSH4 0x66CF96A6 EQ PUSH2 0xDB JUMPI DUP1 PUSH4 0x6F77926B EQ PUSH2 0xF7 JUMPI DUP1 PUSH4 0x87734D53 EQ PUSH2 0x12A JUMPI JUMPDEST PUSH1 0x0 DUP1 REVERT JUMPDEST PUSH2 0xBD PUSH1 0x4 DUP1 CALLDATASIZE SUB DUP2 ADD SWAP1 PUSH2 0xB8 SWAP2 SWAP1 PUSH2 0x2187 JUMP JUMPDEST PUSH2 0x229 JUMP JUMPDEST STOP JUMPDEST PUSH2 0xD9 PUSH1 0x4 DUP1 CALLDATASIZE SUB DUP2 ADD SWAP1 PUSH2 0xD4 SWAP2 SWAP1 PUSH2 0x2294 JUMP JUMPDEST PUSH2 0x498 JUMP JUMPDEST STOP JUMPDEST PUSH2 0xF5 PUSH1 0x4 DUP1 CALLDATASIZE SUB DUP2 ADD SWAP1 PUSH2 0xF0 SWAP2 SWAP1 PUSH2 0x22FB JUMP JUMPDEST PUSH2 0xAE9 JUMP JUMPDEST STOP JUMPDEST PUSH2 0x111 PUSH1 0x4 DUP1 CALLDATASIZE SUB DUP2 ADD SWAP1 PUSH2 0x10C SWAP2 SWAP1 PUSH2 0x2362 JUMP JUMPDEST PUSH2 0xD5A JUMP JUMPDEST PUSH1 0x40 MLOAD PUSH2 0x121 SWAP5 SWAP4 SWAP3 SWAP2 SWAP1 PUSH2 0x23AD JUMP JUMPDEST PUSH1 0x40 MLOAD DUP1 SWAP2 SUB SWAP1 RETURN JUMPDEST PUSH2 0x144 PUSH1 0x4 DUP1 CALLDATASIZE SUB DUP2 ADD SWAP1 PUSH2 0x13F SWAP2 SWAP1 PUSH2 0x23F2 JUMP JUMPDEST PUSH2 0xDC6 JUMP JUMPDEST PUSH1 0x40 MLOAD PUSH2 0x151 SWAP2 SWAP1 PUSH2 0x24C7 JUMP JUMPDEST PUSH1 0x40 MLOAD DUP1 SWAP2 SUB SWAP1 RETURN JUMPDEST PUSH2 0x174 PUSH1 0x4 DUP1 CALLDATASIZE SUB DUP2 ADD SWAP1 PUSH2 0x16F SWAP2 SWAP1 PUSH2 0x24E2 JUMP JUMPDEST PUSH2 0xED5 JUMP JUMPDEST STOP JUMPDEST PUSH2 0x190 PUSH1 0x4 DUP1 CALLDATASIZE SUB DUP2 ADD SWAP1 PUSH2 0x18B SWAP2 SWAP1 PUSH2 0x2522 JUMP JUMPDEST PUSH2 0x1344 JUMP JUMPDEST STOP JUMPDEST PUSH2 0x1AC PUSH1 0x4 DUP1 CALLDATASIZE SUB DUP2 ADD SWAP1 PUSH2 0x1A7 SWAP2 SWAP1 PUSH2 0x2362 JUMP JUMPDEST PUSH2 0x13DD JUMP JUMPDEST PUSH1 0x40 MLOAD PUSH2 0x1BC SWAP5 SWAP4 SWAP3 SWAP2 SWAP1 PUSH2 0x23AD JUMP JUMPDEST PUSH1 0x40 MLOAD DUP1 SWAP2 SUB SWAP1 RETURN JUMPDEST PUSH2 0x1DF PUSH1 0x4 DUP1 CALLDATASIZE SUB DUP2 ADD SWAP1 PUSH2 0x1DA SWAP2 SWAP1 PUSH2 0x254F JUMP JUMPDEST PUSH2 0x140D JUMP JUMPDEST PUSH1 0x40 MLOAD PUSH2 0x1F0 SWAP6 SWAP5 SWAP4 SWAP3 SWAP2 SWAP1 PUSH2 0x259E JUMP JUMPDEST PUSH1 0x40 MLOAD DUP1 SWAP2 SUB SWAP1 RETURN JUMPDEST PUSH2 0x213 PUSH1 0x4 DUP1 CALLDATASIZE SUB DUP2 ADD SWAP1 PUSH2 0x20E SWAP2 SWAP1 PUSH2 0x2522 JUMP JUMPDEST PUSH2 0x14A5 JUMP JUMPDEST PUSH1 0x40 MLOAD PUSH2 0x220 SWAP2 SWAP1 PUSH2 0x2600 JUMP JUMPDEST PUSH1 0x40 MLOAD DUP1 SWAP2 SUB SWAP1 RETURN JUMPDEST PUSH1 0x0 DUP1 SHL DUP3 EQ ISZERO PUSH2 0x26F JUMPI PUSH1 0x40 MLOAD PUSH32 0x8C379A000000000000000000000000000000000000000000000000000000000 DUP2 MSTORE PUSH1 0x4 ADD PUSH2 0x266 SWAP1 PUSH2 0x2678 JUMP JUMPDEST PUSH1 0x40 MLOAD DUP1 SWAP2 SUB SWAP1 REVERT JUMPDEST PUSH1 0x0 PUSH20 0xFFFFFFFFFFFFFFFFFFFFFFFFFFFFFFFFFFFFFFFF AND PUSH1 0x1 PUSH1 0x0 DUP5 DUP2 MSTORE PUSH1 0x20 ADD SWAP1 DUP2 MSTORE PUSH1 0x20 ADD PUSH1 0x0 KECCAK256 PUSH1 0x0 SWAP1 SLOAD SWAP1 PUSH2 0x100 EXP SWAP1 DIV PUSH20 0xFFFFFFFFFFFFFFFFFFFFFFFFFFFFFFFFFFFFFFFF AND PUSH20 0xFFFFFFFFFFFFFFFFFFFFFFFFFFFFFFFFFFFFFFFF AND EQ PUSH2 0x311 JUMPI PUSH1 0x40 MLOAD PUSH32 0x8C379A000000000000000000000000000000000000000000000000000000000 DUP2 MSTORE PUSH1 0x4 ADD PUSH2 0x308 SWAP1 PUSH2 0x26E4 JUMP JUMPDEST PUSH1 0x40 MLOAD DUP1 SWAP2 SUB SWAP1 REVERT JUMPDEST PUSH1 0x0 DUP1 SHL PUSH1 0x0 DUP1 CALLER PUSH20 0xFFFFFFFFFFFFFFFFFFFFFFFFFFFFFFFFFFFFFFFF AND PUSH20 0xFFFFFFFFFFFFFFFFFFFFFFFFFFFFFFFFFFFFFFFF AND DUP2 MSTORE PUSH1 0x20 ADD SWAP1 DUP2 MSTORE PUSH1 0x20 ADD PUSH1 0x0 KECCAK256 PUSH1 0x0 ADD SLOAD EQ PUSH2 0x397 JUMPI PUSH1 0x40 MLOAD PUSH32 0x8C379A000000000000000000000000000000000000000000000000000000000 DUP2 MSTORE PUSH1 0x4 ADD PUSH2 0x38E SWAP1 PUSH2 0x2750 JUMP JUMPDEST PUSH1 0x40 MLOAD DUP1 SWAP2 SUB SWAP1 REVERT JUMPDEST PUSH1 0x0 DUP1 PUSH1 0x0 CALLER PUSH20 0xFFFFFFFFFFFFFFFFFFFFFFFFFFFFFFFFFFFFFFFF AND PUSH20 0xFFFFFFFFFFFFFFFFFFFFFFFFFFFFFFFFFFFFFFFF AND DUP2 MSTORE PUSH1 0x20 ADD SWAP1 DUP2 MSTORE PUSH1 0x20 ADD PUSH1 0x0 KECCAK256 SWAP1 POP DUP3 DUP2 PUSH1 0x0 ADD DUP2 SWAP1 SSTORE POP DUP2 DUP2 PUSH1 0x2 ADD DUP2 SWAP1 SSTORE POP PUSH2 0x3E8 PUSH8 0xDE0B6B3A7640000 PUSH2 0x401 SWAP2 SWAP1 PUSH2 0x279F JUMP JUMPDEST DUP2 PUSH1 0x1 ADD DUP2 SWAP1 SSTORE POP CALLER PUSH1 0x1 PUSH1 0x0 DUP6 DUP2 MSTORE PUSH1 0x20 ADD SWAP1 DUP2 MSTORE PUSH1 0x20 ADD PUSH1 0x0 KECCAK256 PUSH1 0x0 PUSH2 0x100 EXP DUP2 SLOAD DUP2 PUSH20 0xFFFFFFFFFFFFFFFFFFFFFFFFFFFFFFFFFFFFFFFF MUL NOT AND SWAP1 DUP4 PUSH20 0xFFFFFFFFFFFFFFFFFFFFFFFFFFFFFFFFFFFFFFFF AND MUL OR SWAP1 SSTORE POP DUP3 PUSH32 0xD61CAA23C7E60D69F689A83965592BC26F0DEE75C1E247864BB07BBB6FDAFE47 CALLER PUSH1 0x40 MLOAD PUSH2 0x48B SWAP2 SWAP1 PUSH2 0x2600 JUMP JUMPDEST PUSH1 0x40 MLOAD DUP1 SWAP2 SUB SWAP1 LOG2 POP POP POP JUMP JUMPDEST PUSH1 0x0 DUP1 PUSH1 0x0 CALLER PUSH20 0xFFFFFFFFFFFFFFFFFFFFFFFFFFFFFFFFFFFFFFFF AND PUSH20 0xFFFFFFFFFFFFFFFFFFFFFFFFFFFFFFFFFFFFFFFF AND DUP2 MSTORE PUSH1 0x20 ADD SWAP1 DUP2 MSTORE PUSH1 0x20 ADD PUSH1 0x0 KECCAK256 SWAP1 POP PUSH1 0x0 DUP1 SHL DUP2 PUSH1 0x0 ADD SLOAD EQ ISZERO PUSH2 0x524 JUMPI PUSH1 0x40 MLOAD PUSH32 0x8C379A000000000000000000000000000000000000000000000000000000000 DUP2 MSTORE PUSH1 0x4 ADD PUSH2 0x51B SWAP1 PUSH2 0x2845 JUMP JUMPDEST PUSH1 0x40 MLOAD DUP1 SWAP2 SUB SWAP1 REVERT JUMPDEST PUSH1 0x0 DUP4 GT PUSH2 0x567 JUMPI PUSH1 0x40 MLOAD PUSH32 0x8C379A000000000000000000000000000000000000000000000000000000000 DUP2 MSTORE PUSH1 0x4 ADD PUSH2 0x55E SWAP1 PUSH2 0x28B1 JUMP JUMPDEST PUSH1 0x40 MLOAD DUP1 SWAP2 SUB SWAP1 REVERT JUMPDEST PUSH1 0x0 DUP3 PUSH1 0xFF AND EQ DUP1 PUSH2 0x57C JUMPI POP PUSH1 0x1 DUP3 PUSH1 0xFF AND EQ JUMPDEST PUSH2 0x5BB JUMPI PUSH1 0x40 MLOAD PUSH32 0x8C379A000000000000000000000000000000000000000000000000000000000 DUP2 MSTORE PUSH1 0x4 ADD PUSH2 0x5B2 SWAP1 PUSH2 0x291D JUMP JUMPDEST PUSH1 0x40 MLOAD DUP1 SWAP2 SUB SWAP1 REVERT JUMPDEST PUSH1 0x0 DUP1 PUSH1 0x0 DUP8 PUSH20 0xFFFFFFFFFFFFFFFFFFFFFFFFFFFFFFFFFFFFFFFF AND PUSH20 0xFFFFFFFFFFFFFFFFFFFFFFFFFFFFFFFFFFFFFFFF AND DUP2 MSTORE PUSH1 0x20 ADD SWAP1 DUP2 MSTORE PUSH1 0x20 ADD PUSH1 0x0 KECCAK256 SWAP1 POP PUSH1 0x0 DUP1 SHL DUP2 PUSH1 0x0 ADD SLOAD EQ ISZERO PUSH2 0x647 JUMPI PUSH1 0x40 MLOAD PUSH32 0x8C379A000000000000000000000000000000000000000000000000000000000 DUP2 MSTORE PUSH1 0x4 ADD PUSH2 0x63E SWAP1 PUSH2 0x2989 JUMP JUMPDEST PUSH1 0x40 MLOAD DUP1 SWAP2 SUB SWAP1 REVERT JUMPDEST PUSH1 0x0 DUP2 PUSH1 0x4 ADD PUSH1 0x0 DUP8 DUP2 MSTORE PUSH1 0x20 ADD SWAP1 DUP2 MSTORE PUSH1 0x20 ADD PUSH1 0x0 KECCAK256 SWAP1 POP PUSH1 0x0 DUP2 PUSH1 0x0 ADD SLOAD EQ ISZERO PUSH2 0x6A8 JUMPI PUSH1 0x40 MLOAD PUSH32 0x8C379A000000000000000000000000000000000000000000000000000000000 DUP2 MSTORE PUSH1 0x4 ADD PUSH2 0x69F SWAP1 PUSH2 0x2989 JUMP JUMPDEST PUSH1 0x40 MLOAD DUP1 SWAP2 SUB SWAP1 REVERT JUMPDEST DUP1 PUSH1 0x5 ADD PUSH1 0x0 SWAP1 SLOAD SWAP1 PUSH2 0x100 EXP SWAP1 DIV PUSH1 0xFF AND ISZERO PUSH2 0x6FA JUMPI PUSH1 0x40 MLOAD PUSH32 0x8C379A000000000000000000000000000000000000000000000000000000000 DUP2 MSTORE PUSH1 0x4 ADD PUSH2 0x6F1 SWAP1 PUSH2 0x29F5 JUMP JUMPDEST PUSH1 0x40 MLOAD DUP1 SWAP2 SUB SWAP1 REVERT JUMPDEST TIMESTAMP DUP2 PUSH1 0x4 ADD SLOAD GT PUSH2 0x740 JUMPI PUSH1 0x40 MLOAD PUSH32 0x8C379A000000000000000000000000000000000000000000000000000000000 DUP2 MSTORE PUSH1 0x4 ADD PUSH2 0x737 SWAP1 PUSH2 0x2A61 JUMP JUMPDEST PUSH1 0x40 MLOAD DUP1 SWAP2 SUB SWAP1 REVERT JUMPDEST PUSH1 0x0 PUSH8 0xDE0B6B3A7640000 SWAP1 POP PUSH1 0x0 DUP1 DUP7 PUSH1 0xFF AND EQ ISZERO PUSH2 0x791 JUMPI PUSH1 0x64 DUP4 PUSH1 0x1 ADD PUSH1 0x0 SWAP1 SLOAD SWAP1 PUSH2 0x100 EXP SWAP1 DIV PUSH1 0xFF AND PUSH1 0xFF AND DUP5 PUSH1 0x0 ADD SLOAD PUSH2 0x780 SWAP2 SWAP1 PUSH2 0x279F JUMP JUMPDEST PUSH2 0x78A SWAP2 SWAP1 PUSH2 0x2AB0 JUMP JUMPDEST SWAP1 POP PUSH2 0x7D0 JUMP JUMPDEST PUSH1 0x64 DUP4 PUSH1 0x1 ADD PUSH1 0x0 SWAP1 SLOAD SWAP1 PUSH2 0x100 EXP SWAP1 DIV PUSH1 0xFF AND PUSH1 0x64 PUSH2 0x7B1 SWAP2 SWAP1 PUSH2 0x2AE1 JUMP JUMPDEST PUSH1 0xFF AND DUP5 PUSH1 0x0 ADD SLOAD PUSH2 0x7C3 SWAP2 SWAP1 PUSH2 0x279F JUMP JUMPDEST PUSH2 0x7CD SWAP2 SWAP1 PUSH2 0x2AB0 JUMP JUMPDEST SWAP1 POP JUMPDEST PUSH1 0x0 JUMPDEST DUP4 PUSH1 0x3 ADD SLOAD DUP2 LT ISZERO PUSH2 0x855 JUMPI PUSH1 0x0 DUP5 PUSH1 0x6 ADD PUSH1 0x0 DUP4 DUP2 MSTORE PUSH1 0x20 ADD SWAP1 DUP2 MSTORE PUSH1 0x20 ADD PUSH1 0x0 KECCAK256 SWAP1 POP DUP8 PUSH1 0xFF AND DUP2 PUSH1 0x3 ADD PUSH1 0x0 SWAP1 SLOAD SWAP1 PUSH2 0x100 EXP SWAP1 DIV PUSH1 0xFF AND PUSH1 0xFF AND EQ ISZERO PUSH2 0x82E JUMPI DUP1 PUSH1 0x1 ADD SLOAD DUP4 PUSH2 0x827 SWAP2 SWAP1 PUSH2 0x2B15 JUMP JUMPDEST SWAP3 POP PUSH2 0x841 JUMP JUMPDEST DUP1 PUSH1 0x2 ADD SLOAD DUP5 PUSH2 0x83E SWAP2 SWAP1 PUSH2 0x2B15 JUMP JUMPDEST SWAP4 POP JUMPDEST POP DUP1 DUP1 PUSH2 0x84D SWAP1 PUSH2 0x2B6B JUMP JUMPDEST SWAP2 POP POP PUSH2 0x7D3 JUMP JUMPDEST POP PUSH1 0x0 PUSH2 0x8A9 PUSH2 0x876 PUSH2 0x871 DUP6 DUP12 PUSH2 0x14D8 SWAP1 SWAP2 SWAP1 PUSH4 0xFFFFFFFF AND JUMP JUMPDEST PUSH2 0x14F5 JUMP JUMPDEST PUSH2 0x89B DUP11 PUSH2 0x88D DUP8 DUP8 PUSH2 0x14D8 SWAP1 SWAP2 SWAP1 PUSH4 0xFFFFFFFF AND JUMP JUMPDEST PUSH2 0x1586 SWAP1 SWAP2 SWAP1 PUSH4 0xFFFFFFFF AND JUMP JUMPDEST PUSH2 0x1586 SWAP1 SWAP2 SWAP1 PUSH4 0xFFFFFFFF AND JUMP JUMPDEST SWAP1 POP PUSH1 0x1 PUSH8 0xDE0B6B3A7640000 PUSH2 0x8C0 SWAP2 SWAP1 PUSH2 0x279F JUMP JUMPDEST DUP2 LT ISZERO PUSH2 0x902 JUMPI PUSH1 0x40 MLOAD PUSH32 0x8C379A000000000000000000000000000000000000000000000000000000000 DUP2 MSTORE PUSH1 0x4 ADD PUSH2 0x8F9 SWAP1 PUSH2 0x2C00 JUMP JUMPDEST PUSH1 0x40 MLOAD DUP1 SWAP2 SUB SWAP1 REVERT JUMPDEST DUP1 DUP7 PUSH1 0x1 ADD SLOAD LT ISZERO PUSH2 0x949 JUMPI PUSH1 0x40 MLOAD PUSH32 0x8C379A000000000000000000000000000000000000000000000000000000000 DUP2 MSTORE PUSH1 0x4 ADD PUSH2 0x940 SWAP1 PUSH2 0x2C6C JUMP JUMPDEST PUSH1 0x40 MLOAD DUP1 SWAP2 SUB SWAP1 REVERT JUMPDEST PUSH2 0x951 PUSH2 0x210B JUMP JUMPDEST CALLER DUP2 PUSH1 0x0 ADD SWAP1 PUSH20 0xFFFFFFFFFFFFFFFFFFFFFFFFFFFFFFFFFFFFFFFF AND SWAP1 DUP2 PUSH20 0xFFFFFFFFFFFFFFFFFFFFFFFFFFFFFFFFFFFFFFFF AND DUP2 MSTORE POP POP DUP2 DUP8 PUSH1 0x1 ADD PUSH1 0x0 DUP3 DUP3 SLOAD PUSH2 0x99D SWAP2 SWAP1 PUSH2 0x2C8C JUMP JUMPDEST SWAP3 POP POP DUP2 SWAP1 SSTORE POP DUP2 DUP2 PUSH1 0x20 ADD DUP2 DUP2 MSTORE POP POP DUP9 DUP2 PUSH1 0x40 ADD DUP2 DUP2 MSTORE POP POP DUP8 DUP2 PUSH1 0x60 ADD SWAP1 PUSH1 0xFF AND SWAP1 DUP2 PUSH1 0xFF AND DUP2 MSTORE POP POP DUP1 DUP6 PUSH1 0x6 ADD PUSH1 0x0 DUP8 PUSH1 0x3 ADD SLOAD DUP2 MSTORE PUSH1 0x20 ADD SWAP1 DUP2 MSTORE PUSH1 0x20 ADD PUSH1 0x0 KECCAK256 PUSH1 0x0 DUP3 ADD MLOAD DUP2 PUSH1 0x0 ADD PUSH1 0x0 PUSH2 0x100 EXP DUP2 SLOAD DUP2 PUSH20 0xFFFFFFFFFFFFFFFFFFFFFFFFFFFFFFFFFFFFFFFF MUL NOT AND SWAP1 DUP4 PUSH20 0xFFFFFFFFFFFFFFFFFFFFFFFFFFFFFFFFFFFFFFFF AND MUL OR SWAP1 SSTORE POP PUSH1 0x20 DUP3 ADD MLOAD DUP2 PUSH1 0x1 ADD SSTORE PUSH1 0x40 DUP3 ADD MLOAD DUP2 PUSH1 0x2 ADD SSTORE PUSH1 0x60 DUP3 ADD MLOAD DUP2 PUSH1 0x3 ADD PUSH1 0x0 PUSH2 0x100 EXP DUP2 SLOAD DUP2 PUSH1 0xFF MUL NOT AND SWAP1 DUP4 PUSH1 0xFF AND MUL OR SWAP1 SSTORE POP SWAP1 POP POP DUP5 PUSH1 0x3 ADD PUSH1 0x0 DUP2 SLOAD DUP1 SWAP3 SWAP2 SWAP1 PUSH2 0xA78 SWAP1 PUSH2 0x2B6B JUMP JUMPDEST SWAP2 SWAP1 POP SSTORE POP DUP10 DUP12 PUSH20 0xFFFFFFFFFFFFFFFFFFFFFFFFFFFFFFFFFFFFFFFF AND PUSH32 0xAEF4E091EC4A3800E3135934210EDCF6949B208C449C51FE586E99D1700BA2C0 PUSH1 0x1 DUP9 PUSH1 0x3 ADD SLOAD PUSH2 0xAC7 SWAP2 SWAP1 PUSH2 0x2C8C JUMP JUMPDEST PUSH1 0x40 MLOAD PUSH2 0xAD4 SWAP2 SWAP1 PUSH2 0x2CC0 JUMP JUMPDEST PUSH1 0x40 MLOAD DUP1 SWAP2 SUB SWAP1 LOG3 POP POP POP POP POP POP POP POP POP POP POP JUMP JUMPDEST PUSH1 0x0 DUP1 PUSH1 0x0 CALLER PUSH20 0xFFFFFFFFFFFFFFFFFFFFFFFFFFFFFFFFFFFFFFFF AND PUSH20 0xFFFFFFFFFFFFFFFFFFFFFFFFFFFFFFFFFFFFFFFF AND DUP2 MSTORE PUSH1 0x20 ADD SWAP1 DUP2 MSTORE PUSH1 0x20 ADD PUSH1 0x0 KECCAK256 SWAP1 POP PUSH1 0x0 DUP1 SHL DUP2 PUSH1 0x0 ADD SLOAD EQ ISZERO PUSH2 0xB75 JUMPI PUSH1 0x40 MLOAD PUSH32 0x8C379A000000000000000000000000000000000000000000000000000000000 DUP2 MSTORE PUSH1 0x4 ADD PUSH2 0xB6C SWAP1 PUSH2 0x2845 JUMP JUMPDEST PUSH1 0x40 MLOAD DUP1 SWAP2 SUB SWAP1 REVERT JUMPDEST PUSH1 0xA PUSH8 0xDE0B6B3A7640000 PUSH2 0xB8A SWAP2 SWAP1 PUSH2 0x279F JUMP JUMPDEST DUP5 LT ISZERO PUSH2 0xBCC JUMPI PUSH1 0x40 MLOAD PUSH32 0x8C379A000000000000000000000000000000000000000000000000000000000 DUP2 MSTORE PUSH1 0x4 ADD PUSH2 0xBC3 SWAP1 PUSH2 0x2D27 JUMP JUMPDEST PUSH1 0x40 MLOAD DUP1 SWAP2 SUB SWAP1 REVERT JUMPDEST PUSH1 0x1 DUP4 PUSH1 0xFF AND LT ISZERO DUP1 ISZERO PUSH2 0xBE4 JUMPI POP PUSH1 0x63 DUP4 PUSH1 0xFF AND GT ISZERO JUMPDEST PUSH2 0xC23 JUMPI PUSH1 0x40 MLOAD PUSH32 0x8C379A000000000000000000000000000000000000000000000000000000000 DUP2 MSTORE PUSH1 0x4 ADD PUSH2 0xC1A SWAP1 PUSH2 0x2D93 JUMP JUMPDEST PUSH1 0x40 MLOAD DUP1 SWAP2 SUB SWAP1 REVERT JUMPDEST DUP4 DUP2 PUSH1 0x1 ADD SLOAD LT ISZERO PUSH2 0xC6A JUMPI PUSH1 0x40 MLOAD PUSH32 0x8C379A000000000000000000000000000000000000000000000000000000000 DUP2 MSTORE PUSH1 0x4 ADD PUSH2 0xC61 SWAP1 PUSH2 0x2C6C JUMP JUMPDEST PUSH1 0x40 MLOAD DUP1 SWAP2 SUB SWAP1 REVERT JUMPDEST PUSH1 0x0 DUP2 PUSH1 0x4 ADD PUSH1 0x0 DUP4 PUSH1 0x3 ADD SLOAD DUP2 MSTORE PUSH1 0x20 ADD SWAP1 DUP2 MSTORE PUSH1 0x20 ADD PUSH1 0x0 KECCAK256 SWAP1 POP DUP2 PUSH1 0x3 ADD PUSH1 0x0 DUP2 SLOAD DUP1 SWAP3 SWAP2 SWAP1 PUSH2 0xC9C SWAP1 PUSH2 0x2B6B JUMP JUMPDEST SWAP2 SWAP1 POP SSTORE POP DUP5 DUP3 PUSH1 0x1 ADD PUSH1 0x0 DUP3 DUP3 SLOAD PUSH2 0xCB5 SWAP2 SWAP1 PUSH2 0x2C8C JUMP JUMPDEST SWAP3 POP POP DUP2 SWAP1 SSTORE POP DUP5 DUP2 PUSH1 0x0 ADD DUP2 SWAP1 SSTORE POP DUP4 DUP2 PUSH1 0x1 ADD PUSH1 0x0 PUSH2 0x100 EXP DUP2 SLOAD DUP2 PUSH1 0xFF MUL NOT AND SWAP1 DUP4 PUSH1 0xFF AND MUL OR SWAP1 SSTORE POP DUP6 DUP2 PUSH1 0x2 ADD DUP2 SWAP1 SSTORE POP DUP3 DUP2 PUSH1 0x4 ADD DUP2 SWAP1 SSTORE POP CALLER PUSH20 0xFFFFFFFFFFFFFFFFFFFFFFFFFFFFFFFFFFFFFFFF AND PUSH32 0xA69FA77C6A90B171CF4E3D9A9DD6C4E56FBD1FBBDCF3925EAF600CCAA917FEAB PUSH1 0x1 DUP5 PUSH1 0x3 ADD SLOAD PUSH2 0xD3D SWAP2 SWAP1 PUSH2 0x2C8C JUMP JUMPDEST PUSH1 0x40 MLOAD PUSH2 0xD4A SWAP2 SWAP1 PUSH2 0x2CC0 JUMP JUMPDEST PUSH1 0x40 MLOAD DUP1 SWAP2 SUB SWAP1 LOG2 POP POP POP POP POP POP JUMP JUMPDEST PUSH1 0x0 DUP1 PUSH1 0x0 DUP1 PUSH1 0x0 DUP1 PUSH1 0x0 DUP8 PUSH20 0xFFFFFFFFFFFFFFFFFFFFFFFFFFFFFFFFFFFFFFFF AND PUSH20 0xFFFFFFFFFFFFFFFFFFFFFFFFFFFFFFFFFFFFFFFF AND DUP2 MSTORE PUSH1 0x20 ADD SWAP1 DUP2 MSTORE PUSH1 0x20 ADD PUSH1 0x0 KECCAK256 SWAP1 POP DUP1 PUSH1 0x0 ADD SLOAD DUP2 PUSH1 0x1 ADD SLOAD DUP3 PUSH1 0x2 ADD SLOAD DUP4 PUSH1 0x3 ADD SLOAD SWAP5 POP SWAP5 POP SWAP5 POP SWAP5 POP POP SWAP2 SWAP4 POP SWAP2 SWAP4 JUMP JUMPDEST PUSH2 0xDCE PUSH2 0x210B JUMP JUMPDEST PUSH1 0x0 DUP1 PUSH1 0x0 DUP7 PUSH20 0xFFFFFFFFFFFFFFFFFFFFFFFFFFFFFFFFFFFFFFFF AND PUSH20 0xFFFFFFFFFFFFFFFFFFFFFFFFFFFFFFFFFFFFFFFF AND DUP2 MSTORE PUSH1 0x20 ADD SWAP1 DUP2 MSTORE PUSH1 0x20 ADD PUSH1 0x0 KECCAK256 PUSH1 0x4 ADD PUSH1 0x0 DUP6 DUP2 MSTORE PUSH1 0x20 ADD SWAP1 DUP2 MSTORE PUSH1 0x20 ADD PUSH1 0x0 KECCAK256 PUSH1 0x6 ADD PUSH1 0x0 DUP5 DUP2 MSTORE PUSH1 0x20 ADD SWAP1 DUP2 MSTORE PUSH1 0x20 ADD PUSH1 0x0 KECCAK256 SWAP1 POP DUP1 PUSH1 0x40 MLOAD DUP1 PUSH1 0x80 ADD PUSH1 0x40 MSTORE SWAP1 DUP2 PUSH1 0x0 DUP3 ADD PUSH1 0x0 SWAP1 SLOAD SWAP1 PUSH2 0x100 EXP SWAP1 DIV PUSH20 0xFFFFFFFFFFFFFFFFFFFFFFFFFFFFFFFFFFFFFFFF AND PUSH20 0xFFFFFFFFFFFFFFFFFFFFFFFFFFFFFFFFFFFFFFFF AND PUSH20 0xFFFFFFFFFFFFFFFFFFFFFFFFFFFFFFFFFFFFFFFF AND DUP2 MSTORE PUSH1 0x20 ADD PUSH1 0x1 DUP3 ADD SLOAD DUP2 MSTORE PUSH1 0x20 ADD PUSH1 0x2 DUP3 ADD SLOAD DUP2 MSTORE PUSH1 0x20 ADD PUSH1 0x3 DUP3 ADD PUSH1 0x0 SWAP1 SLOAD SWAP1 PUSH2 0x100 EXP SWAP1 DIV PUSH1 0xFF AND PUSH1 0xFF AND PUSH1 0xFF AND DUP2 MSTORE POP POP SWAP2 POP POP SWAP4 SWAP3 POP POP POP JUMP JUMPDEST PUSH1 0x0 DUP1 PUSH1 0x0 CALLER PUSH20 0xFFFFFFFFFFFFFFFFFFFFFFFFFFFFFFFFFFFFFFFF AND PUSH20 0xFFFFFFFFFFFFFFFFFFFFFFFFFFFFFFFFFFFFFFFF AND DUP2 MSTORE PUSH1 0x20 ADD SWAP1 DUP2 MSTORE PUSH1 0x20 ADD PUSH1 0x0 KECCAK256 SWAP1 POP PUSH1 0x0 DUP1 SHL DUP2 PUSH1 0x0 ADD SLOAD EQ ISZERO PUSH2 0xF61 JUMPI PUSH1 0x40 MLOAD PUSH32 0x8C379A000000000000000000000000000000000000000000000000000000000 DUP2 MSTORE PUSH1 0x4 ADD PUSH2 0xF58 SWAP1 PUSH2 0x2845 JUMP JUMPDEST PUSH1 0x40 MLOAD DUP1 SWAP2 SUB SWAP1 REVERT JUMPDEST PUSH1 0x0 DUP2 PUSH1 0x4 ADD PUSH1 0x0 DUP6 DUP2 MSTORE PUSH1 0x20 ADD SWAP1 DUP2 MSTORE PUSH1 0x20 ADD PUSH1 0x0 KECCAK256 SWAP1 POP PUSH1 0x0 DUP2 PUSH1 0x0 ADD SLOAD EQ ISZERO PUSH2 0xFC2 JUMPI PUSH1 0x40 MLOAD PUSH32 0x8C379A000000000000000000000000000000000000000000000000000000000 DUP2 MSTORE PUSH1 0x4 ADD PUSH2 0xFB9 SWAP1 PUSH2 0x2989 JUMP JUMPDEST PUSH1 0x40 MLOAD DUP1 SWAP2 SUB SWAP1 REVERT JUMPDEST DUP1 PUSH1 0x5 ADD PUSH1 0x0 SWAP1 SLOAD SWAP1 PUSH2 0x100 EXP SWAP1 DIV PUSH1 0xFF AND ISZERO PUSH2 0x1014 JUMPI PUSH1 0x40 MLOAD PUSH32 0x8C379A000000000000000000000000000000000000000000000000000000000 DUP2 MSTORE PUSH1 0x4 ADD PUSH2 0x100B SWAP1 PUSH2 0x29F5 JUMP JUMPDEST PUSH1 0x40 MLOAD DUP1 SWAP2 SUB SWAP1 REVERT JUMPDEST PUSH1 0x0 PUSH8 0xDE0B6B3A7640000 SWAP1 POP PUSH1 0x0 DUP1 DUP4 PUSH1 0x0 ADD SLOAD SWAP1 POP PUSH1 0x0 DUP7 PUSH1 0xFF AND EQ ISZERO PUSH2 0x106E JUMPI PUSH1 0x64 DUP5 PUSH1 0x1 ADD PUSH1 0x0 SWAP1 SLOAD SWAP1 PUSH2 0x100 EXP SWAP1 DIV PUSH1 0xFF AND PUSH1 0xFF AND DUP6 PUSH1 0x0 ADD SLOAD PUSH2 0x105D SWAP2 SWAP1 PUSH2 0x279F JUMP JUMPDEST PUSH2 0x1067 SWAP2 SWAP1 PUSH2 0x2AB0 JUMP JUMPDEST SWAP2 POP PUSH2 0x10AD JUMP JUMPDEST PUSH1 0x64 DUP5 PUSH1 0x1 ADD PUSH1 0x0 SWAP1 SLOAD SWAP1 PUSH2 0x100 EXP SWAP1 DIV PUSH1 0xFF AND PUSH1 0x64 PUSH2 0x108E SWAP2 SWAP1 PUSH2 0x2AE1 JUMP JUMPDEST PUSH1 0xFF AND DUP6 PUSH1 0x0 ADD SLOAD PUSH2 0x10A0 SWAP2 SWAP1 PUSH2 0x279F JUMP JUMPDEST PUSH2 0x10AA SWAP2 SWAP1 PUSH2 0x2AB0 JUMP JUMPDEST SWAP2 POP JUMPDEST PUSH1 0x0 JUMPDEST DUP5 PUSH1 0x3 ADD SLOAD DUP2 LT ISZERO PUSH2 0x1143 JUMPI PUSH1 0x0 DUP6 PUSH1 0x6 ADD PUSH1 0x0 DUP4 DUP2 MSTORE PUSH1 0x20 ADD SWAP1 DUP2 MSTORE PUSH1 0x20 ADD PUSH1 0x0 KECCAK256 SWAP1 POP DUP1 PUSH1 0x1 ADD SLOAD DUP4 PUSH2 0x10E5 SWAP2 SWAP1 PUSH2 0x2B15 JUMP JUMPDEST SWAP3 POP DUP8 PUSH1 0xFF AND DUP2 PUSH1 0x3 ADD PUSH1 0x0 SWAP1 SLOAD SWAP1 PUSH2 0x100 EXP SWAP1 DIV PUSH1 0xFF AND PUSH1 0xFF AND EQ ISZERO PUSH2 0x111D JUMPI DUP1 PUSH1 0x2 ADD SLOAD DUP6 PUSH2 0x1116 SWAP2 SWAP1 PUSH2 0x2B15 JUMP JUMPDEST SWAP5 POP PUSH2 0x112F JUMP JUMPDEST DUP1 PUSH1 0x1 ADD SLOAD DUP5 PUSH2 0x112D SWAP2 SWAP1 PUSH2 0x2B15 JUMP JUMPDEST POP JUMPDEST POP DUP1 DUP1 PUSH2 0x113B SWAP1 PUSH2 0x2B6B JUMP JUMPDEST SWAP2 POP POP PUSH2 0x10B0 JUMP JUMPDEST POP PUSH1 0x0 DUP1 JUMPDEST DUP6 PUSH1 0x3 ADD SLOAD DUP2 LT ISZERO PUSH2 0x1276 JUMPI PUSH1 0x0 DUP7 PUSH1 0x6 ADD PUSH1 0x0 DUP4 DUP2 MSTORE PUSH1 0x20 ADD SWAP1 DUP2 MSTORE PUSH1 0x20 ADD PUSH1 0x0 KECCAK256 SWAP1 POP DUP9 PUSH1 0xFF AND DUP2 PUSH1 0x3 ADD PUSH1 0x0 SWAP1 SLOAD SWAP1 PUSH2 0x100 EXP SWAP1 DIV PUSH1 0xFF AND PUSH1 0xFF AND EQ ISZERO PUSH2 0x1262 JUMPI PUSH1 0x0 DUP2 PUSH1 0x1 ADD SLOAD PUSH2 0x11BC DUP8 PUSH2 0x11AE DUP11 DUP7 PUSH1 0x2 ADD SLOAD PUSH2 0x14D8 SWAP1 SWAP2 SWAP1 PUSH4 0xFFFFFFFF AND JUMP JUMPDEST PUSH2 0x1586 SWAP1 SWAP2 SWAP1 PUSH4 0xFFFFFFFF AND JUMP JUMPDEST PUSH2 0x11C6 SWAP2 SWAP1 PUSH2 0x2B15 JUMP JUMPDEST SWAP1 POP DUP1 PUSH1 0x0 DUP1 DUP5 PUSH1 0x0 ADD PUSH1 0x0 SWAP1 SLOAD SWAP1 PUSH2 0x100 EXP SWAP1 DIV PUSH20 0xFFFFFFFFFFFFFFFFFFFFFFFFFFFFFFFFFFFFFFFF AND PUSH20 0xFFFFFFFFFFFFFFFFFFFFFFFFFFFFFFFFFFFFFFFF AND PUSH20 0xFFFFFFFFFFFFFFFFFFFFFFFFFFFFFFFFFFFFFFFF AND DUP2 MSTORE PUSH1 0x20 ADD SWAP1 DUP2 MSTORE PUSH1 0x20 ADD PUSH1 0x0 KECCAK256 PUSH1 0x1 ADD PUSH1 0x0 DUP3 DUP3 SLOAD PUSH2 0x123D SWAP2 SWAP1 PUSH2 0x2B15 JUMP JUMPDEST SWAP3 POP POP DUP2 SWAP1 SSTORE POP DUP1 DUP5 PUSH2 0x1250 SWAP2 SWAP1 PUSH2 0x2B15 JUMP JUMPDEST SWAP4 POP DUP1 DUP6 PUSH2 0x125E SWAP2 SWAP1 PUSH2 0x2C8C JUMP JUMPDEST SWAP5 POP POP JUMPDEST POP DUP1 DUP1 PUSH2 0x126E SWAP1 PUSH2 0x2B6B JUMP JUMPDEST SWAP2 POP POP PUSH2 0x1148 JUMP JUMPDEST POP DUP2 PUSH1 0x0 DUP1 CALLER PUSH20 0xFFFFFFFFFFFFFFFFFFFFFFFFFFFFFFFFFFFFFFFF AND PUSH20 0xFFFFFFFFFFFFFFFFFFFFFFFFFFFFFFFFFFFFFFFF AND DUP2 MSTORE PUSH1 0x20 ADD SWAP1 DUP2 MSTORE PUSH1 0x20 ADD PUSH1 0x0 KECCAK256 PUSH1 0x1 ADD PUSH1 0x0 DUP3 DUP3 SLOAD PUSH2 0x12C8 SWAP2 SWAP1 PUSH2 0x2B15 JUMP JUMPDEST SWAP3 POP POP DUP2 SWAP1 SSTORE POP PUSH1 0x1 DUP6 PUSH1 0x5 ADD PUSH1 0x0 PUSH2 0x100 EXP DUP2 SLOAD DUP2 PUSH1 0xFF MUL NOT AND SWAP1 DUP4 ISZERO ISZERO MUL OR SWAP1 SSTORE POP CALLER PUSH20 0xFFFFFFFFFFFFFFFFFFFFFFFFFFFFFFFFFFFFFFFF AND PUSH32 0x316A0BCD9820C43F9BA8738FD680D536A8AC65080F56F96833F696F6DD5A12FD DUP10 PUSH1 0x40 MLOAD PUSH2 0x1332 SWAP2 SWAP1 PUSH2 0x2CC0 JUMP JUMPDEST PUSH1 0x40 MLOAD DUP1 SWAP2 SUB SWAP1 LOG2 POP POP POP POP POP POP POP POP JUMP JUMPDEST PUSH1 0x0 DUP1 PUSH1 0x0 CALLER PUSH20 0xFFFFFFFFFFFFFFFFFFFFFFFFFFFFFFFFFFFFFFFF AND PUSH20 0xFFFFFFFFFFFFFFFFFFFFFFFFFFFFFFFFFFFFFFFF AND DUP2 MSTORE PUSH1 0x20 ADD SWAP1 DUP2 MSTORE PUSH1 0x20 ADD PUSH1 0x0 KECCAK256 SWAP1 POP PUSH1 0x0 DUP1 SHL DUP2 PUSH1 0x0 ADD SLOAD EQ ISZERO PUSH2 0x13D0 JUMPI PUSH1 0x40 MLOAD PUSH32 0x8C379A000000000000000000000000000000000000000000000000000000000 DUP2 MSTORE PUSH1 0x4 ADD PUSH2 0x13C7 SWAP1 PUSH2 0x2845 JUMP JUMPDEST PUSH1 0x40 MLOAD DUP1 SWAP2 SUB SWAP1 REVERT JUMPDEST DUP2 DUP2 PUSH1 0x2 ADD DUP2 SWAP1 SSTORE POP POP POP JUMP JUMPDEST PUSH1 0x0 PUSH1 0x20 MSTORE DUP1 PUSH1 0x0 MSTORE PUSH1 0x40 PUSH1 0x0 KECCAK256 PUSH1 0x0 SWAP2 POP SWAP1 POP DUP1 PUSH1 0x0 ADD SLOAD SWAP1 DUP1 PUSH1 0x1 ADD SLOAD SWAP1 DUP1 PUSH1 0x2 ADD SLOAD SWAP1 DUP1 PUSH1 0x3 ADD SLOAD SWAP1 POP DUP5 JUMP JUMPDEST PUSH1 0x0 DUP1 PUSH1 0x0 DUP1 PUSH1 0x0 DUP1 PUSH1 0x0 DUP1 DUP10 PUSH20 0xFFFFFFFFFFFFFFFFFFFFFFFFFFFFFFFFFFFFFFFF AND PUSH20 0xFFFFFFFFFFFFFFFFFFFFFFFFFFFFFFFFFFFFFFFF AND DUP2 MSTORE PUSH1 0x20 ADD SWAP1 DUP2 MSTORE PUSH1 0x20 ADD PUSH1 0x0 KECCAK256 PUSH1 0x4 ADD PUSH1 0x0 DUP9 DUP2 MSTORE PUSH1 0x20 ADD SWAP1 DUP2 MSTORE PUSH1 0x20 ADD PUSH1 0x0 KECCAK256 SWAP1 POP DUP1 PUSH1 0x0 ADD SLOAD DUP2 PUSH1 0x1 ADD PUSH1 0x0 SWAP1 SLOAD SWAP1 PUSH2 0x100 EXP SWAP1 DIV PUSH1 0xFF AND DUP3 PUSH1 0x2 ADD SLOAD DUP4 PUSH1 0x3 ADD SLOAD DUP5 PUSH1 0x4 ADD SLOAD SWAP6 POP SWAP6 POP SWAP6 POP SWAP6 POP SWAP6 POP POP SWAP3 SWAP6 POP SWAP3 SWAP6 SWAP1 SWAP4 POP JUMP JUMPDEST PUSH1 0x1 PUSH1 0x20 MSTORE DUP1 PUSH1 0x0 MSTORE PUSH1 0x40 PUSH1 0x0 KECCAK256 PUSH1 0x0 SWAP2 POP SLOAD SWAP1 PUSH2 0x100 EXP SWAP1 DIV PUSH20 0xFFFFFFFFFFFFFFFFFFFFFFFFFFFFFFFFFFFFFFFF AND DUP2 JUMP JUMPDEST PUSH1 0x0 PUSH2 0x14ED DUP4 PUSH8 0xDE0B6B3A7640000 DUP5 PUSH2 0x159A JUMP JUMPDEST SWAP1 POP SWAP3 SWAP2 POP POP JUMP JUMPDEST PUSH1 0x0 PUSH9 0x736EA4425C11AC631 DUP3 LT PUSH2 0x1544 JUMPI DUP2 PUSH1 0x40 MLOAD PUSH32 0x315DA06800000000000000000000000000000000000000000000000000000000 DUP2 MSTORE PUSH1 0x4 ADD PUSH2 0x153B SWAP2 SWAP1 PUSH2 0x2CC0 JUMP JUMPDEST PUSH1 0x40 MLOAD DUP1 SWAP2 SUB SWAP1 REVERT JUMPDEST PUSH1 0x0 PUSH8 0x14057B7EF767814F DUP4 MUL SWAP1 POP PUSH2 0x157E PUSH8 0xDE0B6B3A7640000 PUSH8 0x6F05B59D3B20000 DUP4 ADD DUP2 PUSH2 0x1578 JUMPI PUSH2 0x1577 PUSH2 0x2A81 JUMP JUMPDEST JUMPDEST DIV PUSH2 0x16B0 JUMP JUMPDEST SWAP2 POP POP SWAP2 SWAP1 POP JUMP JUMPDEST PUSH1 0x0 PUSH2 0x1592 DUP4 DUP4 PUSH2 0x1731 JUMP JUMPDEST SWAP1 POP SWAP3 SWAP2 POP POP JUMP JUMPDEST PUSH1 0x0 DUP1 PUSH1 0x0 DUP1 NOT DUP6 DUP8 MULMOD DUP6 DUP8 MUL SWAP3 POP DUP3 DUP2 LT DUP4 DUP3 SUB SUB SWAP2 POP POP PUSH1 0x0 DUP2 EQ ISZERO PUSH2 0x15D6 JUMPI DUP4 DUP3 DUP2 PUSH2 0x15CC JUMPI PUSH2 0x15CB PUSH2 0x2A81 JUMP JUMPDEST JUMPDEST DIV SWAP3 POP POP POP PUSH2 0x16A9 JUMP JUMPDEST DUP4 DUP2 LT PUSH2 0x161C JUMPI DUP1 DUP5 PUSH1 0x40 MLOAD PUSH32 0x773CC18C00000000000000000000000000000000000000000000000000000000 DUP2 MSTORE PUSH1 0x4 ADD PUSH2 0x1613 SWAP3 SWAP2 SWAP1 PUSH2 0x2DB3 JUMP JUMPDEST PUSH1 0x40 MLOAD DUP1 SWAP2 SUB SWAP1 REVERT JUMPDEST PUSH1 0x0 DUP5 DUP7 DUP9 MULMOD SWAP1 POP DUP3 DUP2 GT DUP3 SUB SWAP2 POP DUP1 DUP4 SUB SWAP3 POP PUSH1 0x0 PUSH1 0x1 DUP7 NOT ADD DUP7 AND SWAP1 POP DUP1 DUP7 DIV SWAP6 POP DUP1 DUP5 DIV SWAP4 POP PUSH1 0x1 DUP2 DUP3 PUSH1 0x0 SUB DIV ADD SWAP1 POP DUP1 DUP4 MUL DUP5 OR SWAP4 POP PUSH1 0x0 PUSH1 0x2 DUP8 PUSH1 0x3 MUL XOR SWAP1 POP DUP1 DUP8 MUL PUSH1 0x2 SUB DUP2 MUL SWAP1 POP DUP1 DUP8 MUL PUSH1 0x2 SUB DUP2 MUL SWAP1 POP DUP1 DUP8 MUL PUSH1 0x2 SUB DUP2 MUL SWAP1 POP DUP1 DUP8 MUL PUSH1 0x2 SUB DUP2 MUL SWAP1 POP DUP1 DUP8 MUL PUSH1 0x2 SUB DUP2 MUL SWAP1 POP DUP1 DUP8 MUL PUSH1 0x2 SUB DUP2 MUL SWAP1 POP DUP1 DUP6 MUL SWAP6 POP POP POP POP POP POP JUMPDEST SWAP4 SWAP3 POP POP POP JUMP JUMPDEST PUSH1 0x0 PUSH9 0xA688906BD8B000000 DUP3 LT PUSH2 0x16FF JUMPI DUP2 PUSH1 0x40 MLOAD PUSH32 0x4A4F26F100000000000000000000000000000000000000000000000000000000 DUP2 MSTORE PUSH1 0x4 ADD PUSH2 0x16F6 SWAP2 SWAP1 PUSH2 0x2CC0 JUMP JUMPDEST PUSH1 0x40 MLOAD DUP1 SWAP2 SUB SWAP1 REVERT JUMPDEST PUSH1 0x0 PUSH8 0xDE0B6B3A7640000 PUSH1 0x40 DUP5 SWAP1 SHL DUP2 PUSH2 0x171D JUMPI PUSH2 0x171C PUSH2 0x2A81 JUMP JUMPDEST JUMPDEST DIV SWAP1 POP PUSH2 0x1729 DUP2 PUSH2 0x182F JUMP JUMPDEST SWAP2 POP POP SWAP2 SWAP1 POP JUMP JUMPDEST PUSH1 0x0 DUP1 PUSH1 0x0 DUP1 NOT DUP5 DUP7 MULMOD DUP5 DUP7 MUL SWAP3 POP DUP3 DUP2 LT DUP4 DUP3 SUB SUB SWAP2 POP POP PUSH8 0xDE0B6B3A7640000 DUP2 LT PUSH2 0x1796 JUMPI DUP1 PUSH1 0x40 MLOAD PUSH32 0xD31B340200000000000000000000000000000000000000000000000000000000 DUP2 MSTORE PUSH1 0x4 ADD PUSH2 0x178D SWAP2 SWAP1 PUSH2 0x2CC0 JUMP JUMPDEST PUSH1 0x40 MLOAD DUP1 SWAP2 SUB SWAP1 REVERT JUMPDEST PUSH1 0x0 DUP1 PUSH8 0xDE0B6B3A7640000 DUP7 DUP9 MULMOD SWAP2 POP PUSH8 0x6F05B59D3B1FFFF DUP3 GT SWAP1 POP PUSH1 0x0 DUP4 EQ ISZERO PUSH2 0x17E3 JUMPI DUP1 PUSH8 0xDE0B6B3A7640000 DUP6 DUP2 PUSH2 0x17D6 JUMPI PUSH2 0x17D5 PUSH2 0x2A81 JUMP JUMPDEST JUMPDEST DIV ADD SWAP5 POP POP POP POP POP PUSH2 0x1829 JUMP JUMPDEST DUP1 PUSH32 0xACCB18165BD6FE31AE1CF318DC5B51EEE0E1BA569B88CD74C1773B91FAC10669 PUSH1 0x1 PUSH3 0x40000 DUP1 PUSH1 0x0 SUB DIV ADD DUP7 DUP6 GT DUP7 SUB MUL PUSH3 0x40000 DUP6 DUP9 SUB DIV OR MUL ADD SWAP5 POP POP POP POP POP JUMPDEST SWAP3 SWAP2 POP POP JUMP JUMPDEST PUSH1 0x0 PUSH24 0x800000000000000000000000000000000000000000000000 SWAP1 POP PUSH1 0x0 PUSH8 0x8000000000000000 DUP4 AND GT ISZERO PUSH2 0x1872 JUMPI PUSH1 0x40 PUSH9 0x16A09E667F3BCC909 DUP3 MUL SWAP1 SHR SWAP1 POP JUMPDEST PUSH1 0x0 PUSH8 0x4000000000000000 DUP4 AND GT ISZERO PUSH2 0x1898 JUMPI PUSH1 0x40 PUSH9 0x1306FE0A31B7152DF DUP3 MUL SWAP1 SHR SWAP1 POP JUMPDEST PUSH1 0x0 PUSH8 0x2000000000000000 DUP4 AND GT ISZERO PUSH2 0x18BE JUMPI PUSH1 0x40 PUSH9 0x1172B83C7D517ADCE DUP3 MUL SWAP1 SHR SWAP1 POP JUMPDEST PUSH1 0x0 PUSH8 0x1000000000000000 DUP4 AND GT ISZERO PUSH2 0x18E4 JUMPI PUSH1 0x40 PUSH9 0x10B5586CF9890F62A DUP3 MUL SWAP1 SHR SWAP1 POP JUMPDEST PUSH1 0x0 PUSH8 0x800000000000000 DUP4 AND GT ISZERO PUSH2 0x190A JUMPI PUSH1 0x40 PUSH9 0x1059B0D31585743AE DUP3 MUL SWAP1 SHR SWAP1 POP JUMPDEST PUSH1 0x0 PUSH8 0x400000000000000 DUP4 AND GT ISZERO PUSH2 0x1930 JUMPI PUSH1 0x40 PUSH9 0x102C9A3E778060EE7 DUP3 MUL SWAP1 SHR SWAP1 POP JUMPDEST PUSH1 0x0 PUSH8 0x200000000000000 DUP4 AND GT ISZERO PUSH2 0x1956 JUMPI PUSH1 0x40 PUSH9 0x10163DA9FB33356D8 DUP3 MUL SWAP1 SHR SWAP1 POP JUMPDEST PUSH1 0x0 PUSH8 0x100000000000000 DUP4 AND GT ISZERO PUSH2 0x197C JUMPI PUSH1 0x40 PUSH9 0x100B1AFA5ABCBED61 DUP3 MUL SWAP1 SHR SWAP1 POP JUMPDEST PUSH1 0x0 PUSH7 0x80000000000000 DUP4 AND GT ISZERO PUSH2 0x19A1 JUMPI PUSH1 0x40 PUSH9 0x10058C86DA1C09EA2 DUP3 MUL SWAP1 SHR SWAP1 POP JUMPDEST PUSH1 0x0 PUSH7 0x40000000000000 DUP4 AND GT ISZERO PUSH2 0x19C6 JUMPI PUSH1 0x40 PUSH9 0x1002C605E2E8CEC50 DUP3 MUL SWAP1 SHR SWAP1 POP JUMPDEST PUSH1 0x0 PUSH7 0x20000000000000 DUP4 AND GT ISZERO PUSH2 0x19EB JUMPI PUSH1 0x40 PUSH9 0x100162F3904051FA1 DUP3 MUL SWAP1 SHR SWAP1 POP JUMPDEST PUSH1 0x0 PUSH7 0x10000000000000 DUP4 AND GT ISZERO PUSH2 0x1A10 JUMPI PUSH1 0x40 PUSH9 0x1000B175EFFDC76BA DUP3 MUL SWAP1 SHR SWAP1 POP JUMPDEST PUSH1 0x0 PUSH7 0x8000000000000 DUP4 AND GT ISZERO PUSH2 0x1A35 JUMPI PUSH1 0x40 PUSH9 0x100058BA01FB9F96D DUP3 MUL SWAP1 SHR SWAP1 POP JUMPDEST PUSH1 0x0 PUSH7 0x4000000000000 DUP4 AND GT ISZERO PUSH2 0x1A5A JUMPI PUSH1 0x40 PUSH9 0x10002C5CC37DA9492 DUP3 MUL SWAP1 SHR SWAP1 POP JUMPDEST PUSH1 0x0 PUSH7 0x2000000000000 DUP4 AND GT ISZERO PUSH2 0x1A7F JUMPI PUSH1 0x40 PUSH9 0x1000162E525EE0547 DUP3 MUL SWAP1 SHR SWAP1 POP JUMPDEST PUSH1 0x0 PUSH7 0x1000000000000 DUP4 AND GT ISZERO PUSH2 0x1AA4 JUMPI PUSH1 0x40 PUSH9 0x10000B17255775C04 DUP3 MUL SWAP1 SHR SWAP1 POP JUMPDEST PUSH1 0x0 PUSH6 0x800000000000 DUP4 AND GT ISZERO PUSH2 0x1AC8 JUMPI PUSH1 0x40 PUSH9 0x1000058B91B5BC9AE DUP3 MUL SWAP1 SHR SWAP1 POP JUMPDEST PUSH1 0x0 PUSH6 0x400000000000 DUP4 AND GT ISZERO PUSH2 0x1AEC JUMPI PUSH1 0x40 PUSH9 0x100002C5C89D5EC6D DUP3 MUL SWAP1 SHR SWAP1 POP JUMPDEST PUSH1 0x0 PUSH6 0x200000000000 DUP4 AND GT ISZERO PUSH2 0x1B10 JUMPI PUSH1 0x40 PUSH9 0x10000162E43F4F831 DUP3 MUL SWAP1 SHR SWAP1 POP JUMPDEST PUSH1 0x0 PUSH6 0x100000000000 DUP4 AND GT ISZERO PUSH2 0x1B34 JUMPI PUSH1 0x40 PUSH9 0x100000B1721BCFC9A DUP3 MUL SWAP1 SHR SWAP1 POP JUMPDEST PUSH1 0x0 PUSH6 0x80000000000 DUP4 AND GT ISZERO PUSH2 0x1B58 JUMPI PUSH1 0x40 PUSH9 0x10000058B90CF1E6E DUP3 MUL SWAP1 SHR SWAP1 POP JUMPDEST PUSH1 0x0 PUSH6 0x40000000000 DUP4 AND GT ISZERO PUSH2 0x1B7C JUMPI PUSH1 0x40 PUSH9 0x1000002C5C863B73F DUP3 MUL SWAP1 SHR SWAP1 POP JUMPDEST PUSH1 0x0 PUSH6 0x20000000000 DUP4 AND GT ISZERO PUSH2 0x1BA0 JUMPI PUSH1 0x40 PUSH9 0x100000162E430E5A2 DUP3 MUL SWAP1 SHR SWAP1 POP JUMPDEST PUSH1 0x0 PUSH6 0x10000000000 DUP4 AND GT ISZERO PUSH2 0x1BC4 JUMPI PUSH1 0x40 PUSH9 0x1000000B172183551 DUP3 MUL SWAP1 SHR SWAP1 POP JUMPDEST PUSH1 0x0 PUSH5 0x8000000000 DUP4 AND GT ISZERO PUSH2 0x1BE7 JUMPI PUSH1 0x40 PUSH9 0x100000058B90C0B49 DUP3 MUL SWAP1 SHR SWAP1 POP JUMPDEST PUSH1 0x0 PUSH5 0x4000000000 DUP4 AND GT ISZERO PUSH2 0x1C0A JUMPI PUSH1 0x40 PUSH9 0x10000002C5C8601CC DUP3 MUL SWAP1 SHR SWAP1 POP JUMPDEST PUSH1 0x0 PUSH5 0x2000000000 DUP4 AND GT ISZERO PUSH2 0x1C2D JUMPI PUSH1 0x40 PUSH9 0x1000000162E42FFF0 DUP3 MUL SWAP1 SHR SWAP1 POP JUMPDEST PUSH1 0x0 PUSH5 0x1000000000 DUP4 AND GT ISZERO PUSH2 0x1C50 JUMPI PUSH1 0x40 PUSH9 0x10000000B17217FBB DUP3 MUL SWAP1 SHR SWAP1 POP JUMPDEST PUSH1 0x0 PUSH5 0x800000000 DUP4 AND GT ISZERO PUSH2 0x1C73 JUMPI PUSH1 0x40 PUSH9 0x1000000058B90BFCE DUP3 MUL SWAP1 SHR SWAP1 POP JUMPDEST PUSH1 0x0 PUSH5 0x400000000 DUP4 AND GT ISZERO PUSH2 0x1C96 JUMPI PUSH1 0x40 PUSH9 0x100000002C5C85FE3 DUP3 MUL SWAP1 SHR SWAP1 POP JUMPDEST PUSH1 0x0 PUSH5 0x200000000 DUP4 AND GT ISZERO PUSH2 0x1CB9 JUMPI PUSH1 0x40 PUSH9 0x10000000162E42FF1 DUP3 MUL SWAP1 SHR SWAP1 POP JUMPDEST PUSH1 0x0 PUSH5 0x100000000 DUP4 AND GT ISZERO PUSH2 0x1CDC JUMPI PUSH1 0x40 PUSH9 0x100000000B17217F8 DUP3 MUL SWAP1 SHR SWAP1 POP JUMPDEST PUSH1 0x0 PUSH4 0x80000000 DUP4 AND GT ISZERO PUSH2 0x1CFE JUMPI PUSH1 0x40 PUSH9 0x10000000058B90BFC DUP3 MUL SWAP1 SHR SWAP1 POP JUMPDEST PUSH1 0x0 PUSH4 0x40000000 DUP4 AND GT ISZERO PUSH2 0x1D20 JUMPI PUSH1 0x40 PUSH9 0x1000000002C5C85FE DUP3 MUL SWAP1 SHR SWAP1 POP JUMPDEST PUSH1 0x0 PUSH4 0x20000000 DUP4 AND GT ISZERO PUSH2 0x1D42 JUMPI PUSH1 0x40 PUSH9 0x100000000162E42FF DUP3 MUL SWAP1 SHR SWAP1 POP JUMPDEST PUSH1 0x0 PUSH4 0x10000000 DUP4 AND GT ISZERO PUSH2 0x1D64 JUMPI PUSH1 0x40 PUSH9 0x1000000000B17217F DUP3 MUL SWAP1 SHR SWAP1 POP JUMPDEST PUSH1 0x0 PUSH4 0x8000000 DUP4 AND GT ISZERO PUSH2 0x1D86 JUMPI PUSH1 0x40 PUSH9 0x100000000058B90C0 DUP3 MUL SWAP1 SHR SWAP1 POP JUMPDEST PUSH1 0x0 PUSH4 0x4000000 DUP4 AND GT ISZERO PUSH2 0x1DA8 JUMPI PUSH1 0x40 PUSH9 0x10000000002C5C860 DUP3 MUL SWAP1 SHR SWAP1 POP JUMPDEST PUSH1 0x0 PUSH4 0x2000000 DUP4 AND GT ISZERO PUSH2 0x1DCA JUMPI PUSH1 0x40 PUSH9 0x1000000000162E430 DUP3 MUL SWAP1 SHR SWAP1 POP JUMPDEST PUSH1 0x0 PUSH4 0x1000000 DUP4 AND GT ISZERO PUSH2 0x1DEC JUMPI PUSH1 0x40 PUSH9 0x10000000000B17218 DUP3 MUL SWAP1 SHR SWAP1 POP JUMPDEST PUSH1 0x0 PUSH3 0x800000 DUP4 AND GT ISZERO PUSH2 0x1E0D JUMPI PUSH1 0x40 PUSH9 0x1000000000058B90C DUP3 MUL SWAP1 SHR SWAP1 POP JUMPDEST PUSH1 0x0 PUSH3 0x400000 DUP4 AND GT ISZERO PUSH2 0x1E2E JUMPI PUSH1 0x40 PUSH9 0x100000000002C5C86 DUP3 MUL SWAP1 SHR SWAP1 POP JUMPDEST PUSH1 0x0 PUSH3 0x200000 DUP4 AND GT ISZERO PUSH2 0x1E4F JUMPI PUSH1 0x40 PUSH9 0x10000000000162E43 DUP3 MUL SWAP1 SHR SWAP1 POP JUMPDEST PUSH1 0x0 PUSH3 0x100000 DUP4 AND GT ISZERO PUSH2 0x1E70 JUMPI PUSH1 0x40 PUSH9 0x100000000000B1721 DUP3 MUL SWAP1 SHR SWAP1 POP JUMPDEST PUSH1 0x0 PUSH3 0x80000 DUP4 AND GT ISZERO PUSH2 0x1E91 JUMPI PUSH1 0x40 PUSH9 0x10000000000058B91 DUP3 MUL SWAP1 SHR SWAP1 POP JUMPDEST PUSH1 0x0 PUSH3 0x40000 DUP4 AND GT ISZERO PUSH2 0x1EB2 JUMPI PUSH1 0x40 PUSH9 0x1000000000002C5C8 DUP3 MUL SWAP1 SHR SWAP1 POP JUMPDEST PUSH1 0x0 PUSH3 0x20000 DUP4 AND GT ISZERO PUSH2 0x1ED3 JUMPI PUSH1 0x40 PUSH9 0x100000000000162E4 DUP3 MUL SWAP1 SHR SWAP1 POP JUMPDEST PUSH1 0x0 PUSH3 0x10000 DUP4 AND GT ISZERO PUSH2 0x1EF4 JUMPI PUSH1 0x40 PUSH9 0x1000000000000B172 DUP3 MUL SWAP1 SHR SWAP1 POP JUMPDEST PUSH1 0x0 PUSH2 0x8000 DUP4 AND GT ISZERO PUSH2 0x1F14 JUMPI PUSH1 0x40 PUSH9 0x100000000000058B9 DUP3 MUL SWAP1 SHR SWAP1 POP JUMPDEST PUSH1 0x0 PUSH2 0x4000 DUP4 AND GT ISZERO PUSH2 0x1F34 JUMPI PUSH1 0x40 PUSH9 0x10000000000002C5D DUP3 MUL SWAP1 SHR SWAP1 POP JUMPDEST PUSH1 0x0 PUSH2 0x2000 DUP4 AND GT ISZERO PUSH2 0x1F54 JUMPI PUSH1 0x40 PUSH9 0x1000000000000162E DUP3 MUL SWAP1 SHR SWAP1 POP JUMPDEST PUSH1 0x0 PUSH2 0x1000 DUP4 AND GT ISZERO PUSH2 0x1F74 JUMPI PUSH1 0x40 PUSH9 0x10000000000000B17 DUP3 MUL SWAP1 SHR SWAP1 POP JUMPDEST PUSH1 0x0 PUSH2 0x800 DUP4 AND GT ISZERO PUSH2 0x1F94 JUMPI PUSH1 0x40 PUSH9 0x1000000000000058C DUP3 MUL SWAP1 SHR SWAP1 POP JUMPDEST PUSH1 0x0 PUSH2 0x400 DUP4 AND GT ISZERO PUSH2 0x1FB4 JUMPI PUSH1 0x40 PUSH9 0x100000000000002C6 DUP3 MUL SWAP1 SHR SWAP1 POP JUMPDEST PUSH1 0x0 PUSH2 0x200 DUP4 AND GT ISZERO PUSH2 0x1FD4 JUMPI PUSH1 0x40 PUSH9 0x10000000000000163 DUP3 MUL SWAP1 SHR SWAP1 POP JUMPDEST PUSH1 0x0 PUSH2 0x100 DUP4 AND GT ISZERO PUSH2 0x1FF4 JUMPI PUSH1 0x40 PUSH9 0x100000000000000B1 DUP3 MUL SWAP1 SHR SWAP1 POP JUMPDEST PUSH1 0x0 PUSH1 0x80 DUP4 AND GT ISZERO PUSH2 0x2013 JUMPI PUSH1 0x40 PUSH9 0x10000000000000059 DUP3 MUL SWAP1 SHR SWAP1 POP JUMPDEST PUSH1 0x0 PUSH1 0x40 DUP4 AND GT ISZERO PUSH2 0x2032 JUMPI PUSH1 0x40 PUSH9 0x1000000000000002C DUP3 MUL SWAP1 SHR SWAP1 POP JUMPDEST PUSH1 0x0 PUSH1 0x20 DUP4 AND GT ISZERO PUSH2 0x2051 JUMPI PUSH1 0x40 PUSH9 0x10000000000000016 DUP3 MUL SWAP1 SHR SWAP1 POP JUMPDEST PUSH1 0x0 PUSH1 0x10 DUP4 AND GT ISZERO PUSH2 0x2070 JUMPI PUSH1 0x40 PUSH9 0x1000000000000000B DUP3 MUL SWAP1 SHR SWAP1 POP JUMPDEST PUSH1 0x0 PUSH1 0x8 DUP4 AND GT ISZERO PUSH2 0x208F JUMPI PUSH1 0x40 PUSH9 0x10000000000000006 DUP3 MUL SWAP1 SHR SWAP1 POP JUMPDEST PUSH1 0x0 PUSH1 0x4 DUP4 AND GT ISZERO PUSH2 0x20AE JUMPI PUSH1 0x40 PUSH9 0x10000000000000003 DUP3 MUL SWAP1 SHR SWAP1 POP JUMPDEST PUSH1 0x0 PUSH1 0x2 DUP4 AND GT ISZERO PUSH2 0x20CD JUMPI PUSH1 0x40 PUSH9 0x10000000000000001 DUP3 MUL SWAP1 SHR SWAP1 POP JUMPDEST PUSH1 0x0 PUSH1 0x1 DUP4 AND GT ISZERO PUSH2 0x20EC JUMPI PUSH1 0x40 PUSH9 0x10000000000000001 DUP3 MUL SWAP1 SHR SWAP1 POP JUMPDEST PUSH8 0xDE0B6B3A7640000 DUP2 MUL SWAP1 POP PUSH1 0x40 DUP3 SWAP1 SHR PUSH1 0xBF SUB DUP2 SWAP1 SHR SWAP1 POP SWAP2 SWAP1 POP JUMP JUMPDEST PUSH1 0x40 MLOAD DUP1 PUSH1 0x80 ADD PUSH1 0x40 MSTORE DUP1 PUSH1 0x0 PUSH20 0xFFFFFFFFFFFFFFFFFFFFFFFFFFFFFFFFFFFFFFFF AND DUP2 MSTORE PUSH1 0x20 ADD PUSH1 0x0 DUP2 MSTORE PUSH1 0x20 ADD PUSH1 0x0 DUP2 MSTORE PUSH1 0x20 ADD PUSH1 0x0 PUSH1 0xFF AND DUP2 MSTORE POP SWAP1 JUMP JUMPDEST PUSH1 0x0 DUP1 REVERT JUMPDEST PUSH1 0x0 DUP2 SWAP1 POP SWAP2 SWAP1 POP JUMP JUMPDEST PUSH2 0x2164 DUP2 PUSH2 0x2151 JUMP JUMPDEST DUP2 EQ PUSH2 0x216F JUMPI PUSH1 0x0 DUP1 REVERT JUMPDEST POP JUMP JUMPDEST PUSH1 0x0 DUP2 CALLDATALOAD SWAP1 POP PUSH2 0x2181 DUP2 PUSH2 0x215B JUMP JUMPDEST SWAP3 SWAP2 POP POP JUMP JUMPDEST PUSH1 0x0 DUP1 PUSH1 0x40 DUP4 DUP6 SUB SLT ISZERO PUSH2 0x219E JUMPI PUSH2 0x219D PUSH2 0x214C JUMP JUMPDEST JUMPDEST PUSH1 0x0 PUSH2 0x21AC DUP6 DUP3 DUP7 ADD PUSH2 0x2172 JUMP JUMPDEST SWAP3 POP POP PUSH1 0x20 PUSH2 0x21BD DUP6 DUP3 DUP7 ADD PUSH2 0x2172 JUMP JUMPDEST SWAP2 POP POP SWAP3 POP SWAP3 SWAP1 POP JUMP JUMPDEST PUSH1 0x0 PUSH20 0xFFFFFFFFFFFFFFFFFFFFFFFFFFFFFFFFFFFFFFFF DUP3 AND SWAP1 POP SWAP2 SWAP1 POP JUMP JUMPDEST PUSH1 0x0 PUSH2 0x21F2 DUP3 PUSH2 0x21C7 JUMP JUMPDEST SWAP1 POP SWAP2 SWAP1 POP JUMP JUMPDEST PUSH2 0x2202 DUP2 PUSH2 0x21E7 JUMP JUMPDEST DUP2 EQ PUSH2 0x220D JUMPI PUSH1 0x0 DUP1 REVERT JUMPDEST POP JUMP JUMPDEST PUSH1 0x0 DUP2 CALLDATALOAD SWAP1 POP PUSH2 0x221F DUP2 PUSH2 0x21F9 JUMP JUMPDEST SWAP3 SWAP2 POP POP JUMP JUMPDEST PUSH1 0x0 DUP2 SWAP1 POP SWAP2 SWAP1 POP JUMP JUMPDEST PUSH2 0x2238 DUP2 PUSH2 0x2225 JUMP JUMPDEST DUP2 EQ PUSH2 0x2243 JUMPI PUSH1 0x0 DUP1 REVERT JUMPDEST POP JUMP JUMPDEST PUSH1 0x0 DUP2 CALLDATALOAD SWAP1 POP PUSH2 0x2255 DUP2 PUSH2 0x222F JUMP JUMPDEST SWAP3 SWAP2 POP POP JUMP JUMPDEST PUSH1 0x0 PUSH1 0xFF DUP3 AND SWAP1 POP SWAP2 SWAP1 POP JUMP JUMPDEST PUSH2 0x2271 DUP2 PUSH2 0x225B JUMP JUMPDEST DUP2 EQ PUSH2 0x227C JUMPI PUSH1 0x0 DUP1 REVERT JUMPDEST POP JUMP JUMPDEST PUSH1 0x0 DUP2 CALLDATALOAD SWAP1 POP PUSH2 0x228E DUP2 PUSH2 0x2268 JUMP JUMPDEST SWAP3 SWAP2 POP POP JUMP JUMPDEST PUSH1 0x0 DUP1 PUSH1 0x0 DUP1 PUSH1 0x80 DUP6 DUP8 SUB SLT ISZERO PUSH2 0x22AE JUMPI PUSH2 0x22AD PUSH2 0x214C JUMP JUMPDEST JUMPDEST PUSH1 0x0 PUSH2 0x22BC DUP8 DUP3 DUP9 ADD PUSH2 0x2210 JUMP JUMPDEST SWAP5 POP POP PUSH1 0x20 PUSH2 0x22CD DUP8 DUP3 DUP9 ADD PUSH2 0x2246 JUMP JUMPDEST SWAP4 POP POP PUSH1 0x40 PUSH2 0x22DE DUP8 DUP3 DUP9 ADD PUSH2 0x2246 JUMP JUMPDEST SWAP3 POP POP PUSH1 0x60 PUSH2 0x22EF DUP8 DUP3 DUP9 ADD PUSH2 0x227F JUMP JUMPDEST SWAP2 POP POP SWAP3 SWAP6 SWAP2 SWAP5 POP SWAP3 POP JUMP JUMPDEST PUSH1 0x0 DUP1 PUSH1 0x0 DUP1 PUSH1 0x80 DUP6 DUP8 SUB SLT ISZERO PUSH2 0x2315 JUMPI PUSH2 0x2314 PUSH2 0x214C JUMP JUMPDEST JUMPDEST PUSH1 0x0 PUSH2 0x2323 DUP8 DUP3 DUP9 ADD PUSH2 0x2172 JUMP JUMPDEST SWAP5 POP POP PUSH1 0x20 PUSH2 0x2334 DUP8 DUP3 DUP9 ADD PUSH2 0x2246 JUMP JUMPDEST SWAP4 POP POP PUSH1 0x40 PUSH2 0x2345 DUP8 DUP3 DUP9 ADD PUSH2 0x227F JUMP JUMPDEST SWAP3 POP POP PUSH1 0x60 PUSH2 0x2356 DUP8 DUP3 DUP9 ADD PUSH2 0x2246 JUMP JUMPDEST SWAP2 POP POP SWAP3 SWAP6 SWAP2 SWAP5 POP SWAP3 POP JUMP JUMPDEST PUSH1 0x0 PUSH1 0x20 DUP3 DUP5 SUB SLT ISZERO PUSH2 0x2378 JUMPI PUSH2 0x2377 PUSH2 0x214C JUMP JUMPDEST JUMPDEST PUSH1 0x0 PUSH2 0x2386 DUP5 DUP3 DUP6 ADD PUSH2 0x2210 JUMP JUMPDEST SWAP2 POP POP SWAP3 SWAP2 POP POP JUMP JUMPDEST PUSH2 0x2398 DUP2 PUSH2 0x2151 JUMP JUMPDEST DUP3 MSTORE POP POP JUMP JUMPDEST PUSH2 0x23A7 DUP2 PUSH2 0x2225 JUMP JUMPDEST DUP3 MSTORE POP POP JUMP JUMPDEST PUSH1 0x0 PUSH1 0x80 DUP3 ADD SWAP1 POP PUSH2 0x23C2 PUSH1 0x0 DUP4 ADD DUP8 PUSH2 0x238F JUMP JUMPDEST PUSH2 0x23CF PUSH1 0x20 DUP4 ADD DUP7 PUSH2 0x239E JUMP JUMPDEST PUSH2 0x23DC PUSH1 0x40 DUP4 ADD DUP6 PUSH2 0x238F JUMP JUMPDEST PUSH2 0x23E9 PUSH1 0x60 DUP4 ADD DUP5 PUSH2 0x239E JUMP JUMPDEST SWAP6 SWAP5 POP POP POP POP POP JUMP JUMPDEST PUSH1 0x0 DUP1 PUSH1 0x0 PUSH1 0x60 DUP5 DUP7 SUB SLT ISZERO PUSH2 0x240B JUMPI PUSH2 0x240A PUSH2 0x214C JUMP JUMPDEST JUMPDEST PUSH1 0x0 PUSH2 0x2419 DUP7 DUP3 DUP8 ADD PUSH2 0x2210 JUMP JUMPDEST SWAP4 POP POP PUSH1 0x20 PUSH2 0x242A DUP7 DUP3 DUP8 ADD PUSH2 0x2246 JUMP JUMPDEST SWAP3 POP POP PUSH1 0x40 PUSH2 0x243B DUP7 DUP3 DUP8 ADD PUSH2 0x2246 JUMP JUMPDEST SWAP2 POP POP SWAP3 POP SWAP3 POP SWAP3 JUMP JUMPDEST PUSH2 0x244E DUP2 PUSH2 0x21E7 JUMP JUMPDEST DUP3 MSTORE POP POP JUMP JUMPDEST PUSH2 0x245D DUP2 PUSH2 0x2225 JUMP JUMPDEST DUP3 MSTORE POP POP JUMP JUMPDEST PUSH2 0x246C DUP2 PUSH2 0x225B JUMP JUMPDEST DUP3 MSTORE POP POP JUMP JUMPDEST PUSH1 0x80 DUP3 ADD PUSH1 0x0 DUP3 ADD MLOAD PUSH2 0x2488 PUSH1 0x0 DUP6 ADD DUP3 PUSH2 0x2445 JUMP JUMPDEST POP PUSH1 0x20 DUP3 ADD MLOAD PUSH2 0x249B PUSH1 0x20 DUP6 ADD DUP3 PUSH2 0x2454 JUMP JUMPDEST POP PUSH1 0x40 DUP3 ADD MLOAD PUSH2 0x24AE PUSH1 0x40 DUP6 ADD DUP3 PUSH2 0x2454 JUMP JUMPDEST POP PUSH1 0x60 DUP3 ADD MLOAD PUSH2 0x24C1 PUSH1 0x60 DUP6 ADD DUP3 PUSH2 0x2463 JUMP JUMPDEST POP POP POP POP JUMP JUMPDEST PUSH1 0x0 PUSH1 0x80 DUP3 ADD SWAP1 POP PUSH2 0x24DC PUSH1 0x0 DUP4 ADD DUP5 PUSH2 0x2472 JUMP JUMPDEST SWAP3 SWAP2 POP POP JUMP JUMPDEST PUSH1 0x0 DUP1 PUSH1 0x40 DUP4 DUP6 SUB SLT ISZERO PUSH2 0x24F9 JUMPI PUSH2 0x24F8 PUSH2 0x214C JUMP JUMPDEST JUMPDEST PUSH1 0x0 PUSH2 0x2507 DUP6 DUP3 DUP7 ADD PUSH2 0x2246 JUMP JUMPDEST SWAP3 POP POP PUSH1 0x20 PUSH2 0x2518 DUP6 DUP3 DUP7 ADD PUSH2 0x227F JUMP JUMPDEST SWAP2 POP POP SWAP3 POP SWAP3 SWAP1 POP JUMP JUMPDEST PUSH1 0x0 PUSH1 0x20 DUP3 DUP5 SUB SLT ISZERO PUSH2 0x2538 JUMPI PUSH2 0x2537 PUSH2 0x214C JUMP JUMPDEST JUMPDEST PUSH1 0x0 PUSH2 0x2546 DUP5 DUP3 DUP6 ADD PUSH2 0x2172 JUMP JUMPDEST SWAP2 POP POP SWAP3 SWAP2 POP POP JUMP JUMPDEST PUSH1 0x0 DUP1 PUSH1 0x40 DUP4 DUP6 SUB SLT ISZERO PUSH2 0x2566 JUMPI PUSH2 0x2565 PUSH2 0x214C JUMP JUMPDEST JUMPDEST PUSH1 0x0 PUSH2 0x2574 DUP6 DUP3 DUP7 ADD PUSH2 0x2210 JUMP JUMPDEST SWAP3 POP POP PUSH1 0x20 PUSH2 0x2585 DUP6 DUP3 DUP7 ADD PUSH2 0x2246 JUMP JUMPDEST SWAP2 POP POP SWAP3 POP SWAP3 SWAP1 POP JUMP JUMPDEST PUSH2 0x2598 DUP2 PUSH2 0x225B JUMP JUMPDEST DUP3 MSTORE POP POP JUMP JUMPDEST PUSH1 0x0 PUSH1 0xA0 DUP3 ADD SWAP1 POP PUSH2 0x25B3 PUSH1 0x0 DUP4 ADD DUP9 PUSH2 0x239E JUMP JUMPDEST PUSH2 0x25C0 PUSH1 0x20 DUP4 ADD DUP8 PUSH2 0x258F JUMP JUMPDEST PUSH2 0x25CD PUSH1 0x40 DUP4 ADD DUP7 PUSH2 0x238F JUMP JUMPDEST PUSH2 0x25DA PUSH1 0x60 DUP4 ADD DUP6 PUSH2 0x239E JUMP JUMPDEST PUSH2 0x25E7 PUSH1 0x80 DUP4 ADD DUP5 PUSH2 0x239E JUMP JUMPDEST SWAP7 SWAP6 POP POP POP POP POP POP JUMP JUMPDEST PUSH2 0x25FA DUP2 PUSH2 0x21E7 JUMP JUMPDEST DUP3 MSTORE POP POP JUMP JUMPDEST PUSH1 0x0 PUSH1 0x20 DUP3 ADD SWAP1 POP PUSH2 0x2615 PUSH1 0x0 DUP4 ADD DUP5 PUSH2 0x25F1 JUMP JUMPDEST SWAP3 SWAP2 POP POP JUMP JUMPDEST PUSH1 0x0 DUP3 DUP3 MSTORE PUSH1 0x20 DUP3 ADD SWAP1 POP SWAP3 SWAP2 POP POP JUMP JUMPDEST PUSH32 0x757365726E616D65207265717569726564000000000000000000000000000000 PUSH1 0x0 DUP3 ADD MSTORE POP JUMP JUMPDEST PUSH1 0x0 PUSH2 0x2662 PUSH1 0x11 DUP4 PUSH2 0x261B JUMP JUMPDEST SWAP2 POP PUSH2 0x266D DUP3 PUSH2 0x262C JUMP JUMPDEST PUSH1 0x20 DUP3 ADD SWAP1 POP SWAP2 SWAP1 POP JUMP JUMPDEST PUSH1 0x0 PUSH1 0x20 DUP3 ADD SWAP1 POP DUP2 DUP2 SUB PUSH1 0x0 DUP4 ADD MSTORE PUSH2 0x2691 DUP2 PUSH2 0x2655 JUMP JUMPDEST SWAP1 POP SWAP2 SWAP1 POP JUMP JUMPDEST PUSH32 0x757365726E616D652074616B656E000000000000000000000000000000000000 PUSH1 0x0 DUP3 ADD MSTORE POP JUMP JUMPDEST PUSH1 0x0 PUSH2 0x26CE PUSH1 0xE DUP4 PUSH2 0x261B JUMP JUMPDEST SWAP2 POP PUSH2 0x26D9 DUP3 PUSH2 0x2698 JUMP JUMPDEST PUSH1 0x20 DUP3 ADD SWAP1 POP SWAP2 SWAP1 POP JUMP JUMPDEST PUSH1 0x0 PUSH1 0x20 DUP3 ADD SWAP1 POP DUP2 DUP2 SUB PUSH1 0x0 DUP4 ADD MSTORE PUSH2 0x26FD DUP2 PUSH2 0x26C1 JUMP JUMPDEST SWAP1 POP SWAP2 SWAP1 POP JUMP JUMPDEST PUSH32 0x616C726561647920726567697374657265640000000000000000000000000000 PUSH1 0x0 DUP3 ADD MSTORE POP JUMP JUMPDEST PUSH1 0x0 PUSH2 0x273A PUSH1 0x12 DUP4 PUSH2 0x261B JUMP JUMPDEST SWAP2 POP PUSH2 0x2745 DUP3 PUSH2 0x2704 JUMP JUMPDEST PUSH1 0x20 DUP3 ADD SWAP1 POP SWAP2 SWAP1 POP JUMP JUMPDEST PUSH1 0x0 PUSH1 0x20 DUP3 ADD SWAP1 POP DUP2 DUP2 SUB PUSH1 0x0 DUP4 ADD MSTORE PUSH2 0x2769 DUP2 PUSH2 0x272D JUMP JUMPDEST SWAP1 POP SWAP2 SWAP1 POP JUMP JUMPDEST PUSH32 0x4E487B7100000000000000000000000000000000000000000000000000000000 PUSH1 0x0 MSTORE PUSH1 0x11 PUSH1 0x4 MSTORE PUSH1 0x24 PUSH1 0x0 REVERT JUMPDEST PUSH1 0x0 PUSH2 0x27AA DUP3 PUSH2 0x2225 JUMP JUMPDEST SWAP2 POP PUSH2 0x27B5 DUP4 PUSH2 0x2225 JUMP JUMPDEST SWAP3 POP DUP2 PUSH32 0xFFFFFFFFFFFFFFFFFFFFFFFFFFFFFFFFFFFFFFFFFFFFFFFFFFFFFFFFFFFFFFFF DIV DUP4 GT DUP3 ISZERO ISZERO AND ISZERO PUSH2 0x27EE JUMPI PUSH2 0x27ED PUSH2 0x2770 JUMP JUMPDEST JUMPDEST DUP3 DUP3 MUL SWAP1 POP SWAP3 SWAP2 POP POP JUMP JUMPDEST PUSH32 0x6E6F207573657220666F722074686973206163636F756E740000000000000000 PUSH1 0x0 DUP3 ADD MSTORE POP JUMP JUMPDEST PUSH1 0x0 PUSH2 0x282F PUSH1 0x18 DUP4 PUSH2 0x261B JUMP JUMPDEST SWAP2 POP PUSH2 0x283A DUP3 PUSH2 0x27F9 JUMP JUMPDEST PUSH1 0x20 DUP3 ADD SWAP1 POP SWAP2 SWAP1 POP JUMP JUMPDEST PUSH1 0x0 PUSH1 0x20 DUP3 ADD SWAP1 POP DUP2 DUP2 SUB PUSH1 0x0 DUP4 ADD MSTORE PUSH2 0x285E DUP2 PUSH2 0x2822 JUMP JUMPDEST SWAP1 POP SWAP2 SWAP1 POP JUMP JUMPDEST PUSH32 0x6E756D626572206F662073686172657320696E76616C69640000000000000000 PUSH1 0x0 DUP3 ADD MSTORE POP JUMP JUMPDEST PUSH1 0x0 PUSH2 0x289B PUSH1 0x18 DUP4 PUSH2 0x261B JUMP JUMPDEST SWAP2 POP PUSH2 0x28A6 DUP3 PUSH2 0x2865 JUMP JUMPDEST PUSH1 0x20 DUP3 ADD SWAP1 POP SWAP2 SWAP1 POP JUMP JUMPDEST PUSH1 0x0 PUSH1 0x20 DUP3 ADD SWAP1 POP DUP2 DUP2 SUB PUSH1 0x0 DUP4 ADD MSTORE PUSH2 0x28CA DUP2 PUSH2 0x288E JUMP JUMPDEST SWAP1 POP SWAP2 SWAP1 POP JUMP JUMPDEST PUSH32 0x6F7574636F6D6520696E76616C69640000000000000000000000000000000000 PUSH1 0x0 DUP3 ADD MSTORE POP JUMP JUMPDEST PUSH1 0x0 PUSH2 0x2907 PUSH1 0xF DUP4 PUSH2 0x261B JUMP JUMPDEST SWAP2 POP PUSH2 0x2912 DUP3 PUSH2 0x28D1 JUMP JUMPDEST PUSH1 0x20 DUP3 ADD SWAP1 POP SWAP2 SWAP1 POP JUMP JUMPDEST PUSH1 0x0 PUSH1 0x20 DUP3 ADD SWAP1 POP DUP2 DUP2 SUB PUSH1 0x0 DUP4 ADD MSTORE PUSH2 0x2936 DUP2 PUSH2 0x28FA JUMP JUMPDEST SWAP1 POP SWAP2 SWAP1 POP JUMP JUMPDEST PUSH32 0x696E76616C6964206D61726B6574000000000000000000000000000000000000 PUSH1 0x0 DUP3 ADD MSTORE POP JUMP JUMPDEST PUSH1 0x0 PUSH2 0x2973 PUSH1 0xE DUP4 PUSH2 0x261B JUMP JUMPDEST SWAP2 POP PUSH2 0x297E DUP3 PUSH2 0x293D JUMP JUMPDEST PUSH1 0x20 DUP3 ADD SWAP1 POP SWAP2 SWAP1 POP JUMP JUMPDEST PUSH1 0x0 PUSH1 0x20 DUP3 ADD SWAP1 POP DUP2 DUP2 SUB PUSH1 0x0 DUP4 ADD MSTORE PUSH2 0x29A2 DUP2 PUSH2 0x2966 JUMP JUMPDEST SWAP1 POP SWAP2 SWAP1 POP JUMP JUMPDEST PUSH32 0x6D61726B6574207265736F6C7665640000000000000000000000000000000000 PUSH1 0x0 DUP3 ADD MSTORE POP JUMP JUMPDEST PUSH1 0x0 PUSH2 0x29DF PUSH1 0xF DUP4 PUSH2 0x261B JUMP JUMPDEST SWAP2 POP PUSH2 0x29EA DUP3 PUSH2 0x29A9 JUMP JUMPDEST PUSH1 0x20 DUP3 ADD SWAP1 POP SWAP2 SWAP1 POP JUMP JUMPDEST PUSH1 0x0 PUSH1 0x20 DUP3 ADD SWAP1 POP DUP2 DUP2 SUB PUSH1 0x0 DUP4 ADD MSTORE PUSH2 0x2A0E DUP2 PUSH2 0x29D2 JUMP JUMPDEST SWAP1 POP SWAP2 SWAP1 POP JUMP JUMPDEST PUSH32 0x6D61726B657420636C6F73656400000000000000000000000000000000000000 PUSH1 0x0 DUP3 ADD MSTORE POP JUMP JUMPDEST PUSH1 0x0 PUSH2 0x2A4B PUSH1 0xD DUP4 PUSH2 0x261B JUMP JUMPDEST SWAP2 POP PUSH2 0x2A56 DUP3 PUSH2 0x2A15 JUMP JUMPDEST PUSH1 0x20 DUP3 ADD SWAP1 POP SWAP2 SWAP1 POP JUMP JUMPDEST PUSH1 0x0 PUSH1 0x20 DUP3 ADD SWAP1 POP DUP2 DUP2 SUB PUSH1 0x0 DUP4 ADD MSTORE PUSH2 0x2A7A DUP2 PUSH2 0x2A3E JUMP JUMPDEST SWAP1 POP SWAP2 SWAP1 POP JUMP JUMPDEST PUSH32 0x4E487B7100000000000000000000000000000000000000000000000000000000 PUSH1 0x0 MSTORE PUSH1 0x12 PUSH1 0x4 MSTORE PUSH1 0x24 PUSH1 0x0 REVERT JUMPDEST PUSH1 0x0 PUSH2 0x2ABB DUP3 PUSH2 0x2225 JUMP JUMPDEST SWAP2 POP PUSH2 0x2AC6 DUP4 PUSH2 0x2225 JUMP JUMPDEST SWAP3 POP DUP3 PUSH2 0x2AD6 JUMPI PUSH2 0x2AD5 PUSH2 0x2A81 JUMP JUMPDEST JUMPDEST DUP3 DUP3 DIV SWAP1 POP SWAP3 SWAP2 POP POP JUMP JUMPDEST PUSH1 0x0 PUSH2 0x2AEC DUP3 PUSH2 0x225B JUMP JUMPDEST SWAP2 POP PUSH2 0x2AF7 DUP4 PUSH2 0x225B JUMP JUMPDEST SWAP3 POP DUP3 DUP3 LT ISZERO PUSH2 0x2B0A JUMPI PUSH2 0x2B09 PUSH2 0x2770 JUMP JUMPDEST JUMPDEST DUP3 DUP3 SUB SWAP1 POP SWAP3 SWAP2 POP POP JUMP JUMPDEST PUSH1 0x0 PUSH2 0x2B20 DUP3 PUSH2 0x2225 JUMP JUMPDEST SWAP2 POP PUSH2 0x2B2B DUP4 PUSH2 0x2225 JUMP JUMPDEST SWAP3 POP DUP3 PUSH32 0xFFFFFFFFFFFFFFFFFFFFFFFFFFFFFFFFFFFFFFFFFFFFFFFFFFFFFFFFFFFFFFFF SUB DUP3 GT ISZERO PUSH2 0x2B60 JUMPI PUSH2 0x2B5F PUSH2 0x2770 JUMP JUMPDEST JUMPDEST DUP3 DUP3 ADD SWAP1 POP SWAP3 SWAP2 POP POP JUMP JUMPDEST PUSH1 0x0 PUSH2 0x2B76 DUP3 PUSH2 0x2225 JUMP JUMPDEST SWAP2 POP PUSH32 0xFFFFFFFFFFFFFFFFFFFFFFFFFFFFFFFFFFFFFFFFFFFFFFFFFFFFFFFFFFFFFFFF DUP3 EQ ISZERO PUSH2 0x2BA9 JUMPI PUSH2 0x2BA8 PUSH2 0x2770 JUMP JUMPDEST JUMPDEST PUSH1 0x1 DUP3 ADD SWAP1 POP SWAP2 SWAP1 POP JUMP JUMPDEST PUSH32 0x6265742073697A6520746F6F20736D616C6C0000000000000000000000000000 PUSH1 0x0 DUP3 ADD MSTORE POP JUMP JUMPDEST PUSH1 0x0 PUSH2 0x2BEA PUSH1 0x12 DUP4 PUSH2 0x261B JUMP JUMPDEST SWAP2 POP PUSH2 0x2BF5 DUP3 PUSH2 0x2BB4 JUMP JUMPDEST PUSH1 0x20 DUP3 ADD SWAP1 POP SWAP2 SWAP1 POP JUMP JUMPDEST PUSH1 0x0 PUSH1 0x20 DUP3 ADD SWAP1 POP DUP2 DUP2 SUB PUSH1 0x0 DUP4 ADD MSTORE PUSH2 0x2C19 DUP2 PUSH2 0x2BDD JUMP JUMPDEST SWAP1 POP SWAP2 SWAP1 POP JUMP JUMPDEST PUSH32 0x696E73756666696369656E742062616C616E6365000000000000000000000000 PUSH1 0x0 DUP3 ADD MSTORE POP JUMP JUMPDEST PUSH1 0x0 PUSH2 0x2C56 PUSH1 0x14 DUP4 PUSH2 0x261B JUMP JUMPDEST SWAP2 POP PUSH2 0x2C61 DUP3 PUSH2 0x2C20 JUMP JUMPDEST PUSH1 0x20 DUP3 ADD SWAP1 POP SWAP2 SWAP1 POP JUMP JUMPDEST PUSH1 0x0 PUSH1 0x20 DUP3 ADD SWAP1 POP DUP2 DUP2 SUB PUSH1 0x0 DUP4 ADD MSTORE PUSH2 0x2C85 DUP2 PUSH2 0x2C49 JUMP JUMPDEST SWAP1 POP SWAP2 SWAP1 POP JUMP JUMPDEST PUSH1 0x0 PUSH2 0x2C97 DUP3 PUSH2 0x2225 JUMP JUMPDEST SWAP2 POP PUSH2 0x2CA2 DUP4 PUSH2 0x2225 JUMP JUMPDEST SWAP3 POP DUP3 DUP3 LT ISZERO PUSH2 0x2CB5 JUMPI PUSH2 0x2CB4 PUSH2 0x2770 JUMP JUMPDEST JUMPDEST DUP3 DUP3 SUB SWAP1 POP SWAP3 SWAP2 POP POP JUMP JUMPDEST PUSH1 0x0 PUSH1 0x20 DUP3 ADD SWAP1 POP PUSH2 0x2CD5 PUSH1 0x0 DUP4 ADD DUP5 PUSH2 0x239E JUMP JUMPDEST SWAP3 SWAP2 POP POP JUMP JUMPDEST PUSH32 0x706F6F6C20746F6F20736D616C6C000000000000000000000000000000000000 PUSH1 0x0 DUP3 ADD MSTORE POP JUMP JUMPDEST PUSH1 0x0 PUSH2 0x2D11 PUSH1 0xE DUP4 PUSH2 0x261B JUMP JUMPDEST SWAP2 POP PUSH2 0x2D1C DUP3 PUSH2 0x2CDB JUMP JUMPDEST PUSH1 0x20 DUP3 ADD SWAP1 POP SWAP2 SWAP1 POP JUMP JUMPDEST PUSH1 0x0 PUSH1 0x20 DUP3 ADD SWAP1 POP DUP2 DUP2 SUB PUSH1 0x0 DUP4 ADD MSTORE PUSH2 0x2D40 DUP2 PUSH2 0x2D04 JUMP JUMPDEST SWAP1 POP SWAP2 SWAP1 POP JUMP JUMPDEST PUSH32 0x70726F62206F7574206F662072616E6765000000000000000000000000000000 PUSH1 0x0 DUP3 ADD MSTORE POP JUMP JUMPDEST PUSH1 0x0 PUSH2 0x2D7D PUSH1 0x11 DUP4 PUSH2 0x261B JUMP JUMPDEST SWAP2 POP PUSH2 0x2D88 DUP3 PUSH2 0x2D47 JUMP JUMPDEST PUSH1 0x20 DUP3 ADD SWAP1 POP SWAP2 SWAP1 POP JUMP JUMPDEST PUSH1 0x0 PUSH1 0x20 DUP3 ADD SWAP1 POP DUP2 DUP2 SUB PUSH1 0x0 DUP4 ADD MSTORE PUSH2 0x2DAC DUP2 PUSH2 0x2D70 JUMP JUMPDEST SWAP1 POP SWAP2 SWAP1 POP JUMP JUMPDEST PUSH1 0x0 PUSH1 0x40 DUP3 ADD SWAP1 POP PUSH2 0x2DC8 PUSH1 0x0 DUP4 ADD DUP6 PUSH2 0x239E JUMP JUMPDEST PUSH2 0x2DD5 PUSH1 0x20 DUP4 ADD DUP5 PUSH2 0x239E JUMP JUMPDEST SWAP4 SWAP3 POP POP POP JUMP INVALID LOG2 PUSH5 0x6970667358 0x22 SLT KECCAK256 PUSH32 0xE7EEA3765689334337932C90353A39BED2621F8E72B8109F474E10349BAEA364 PUSH20 0x6F6C634300080B00330000000000000000000000 "
    }
  }
}